{
  "_format": "hh-sol-artifact-1",
  "contractName": "Continents",
  "sourceName": "contracts/Continents.sol",
  "abi": [
    {
      "inputs": [],
      "stateMutability": "nonpayable",
      "type": "constructor"
    },
    {
      "anonymous": false,
      "inputs": [
        {
          "indexed": true,
          "internalType": "address",
          "name": "account",
          "type": "address"
        },
        {
          "indexed": true,
          "internalType": "address",
          "name": "operator",
          "type": "address"
        },
        {
          "indexed": false,
          "internalType": "bool",
          "name": "approved",
          "type": "bool"
        }
      ],
      "name": "ApprovalForAll",
      "type": "event"
    },
    {
      "anonymous": false,
      "inputs": [
        {
          "indexed": true,
          "internalType": "address",
          "name": "operator",
          "type": "address"
        },
        {
          "indexed": true,
          "internalType": "address",
          "name": "from",
          "type": "address"
        },
        {
          "indexed": true,
          "internalType": "address",
          "name": "to",
          "type": "address"
        },
        {
          "indexed": false,
          "internalType": "uint256[]",
          "name": "ids",
          "type": "uint256[]"
        },
        {
          "indexed": false,
          "internalType": "uint256[]",
          "name": "values",
          "type": "uint256[]"
        }
      ],
      "name": "TransferBatch",
      "type": "event"
    },
    {
      "anonymous": false,
      "inputs": [
        {
          "indexed": true,
          "internalType": "address",
          "name": "operator",
          "type": "address"
        },
        {
          "indexed": true,
          "internalType": "address",
          "name": "from",
          "type": "address"
        },
        {
          "indexed": true,
          "internalType": "address",
          "name": "to",
          "type": "address"
        },
        {
          "indexed": false,
          "internalType": "uint256",
          "name": "id",
          "type": "uint256"
        },
        {
          "indexed": false,
          "internalType": "uint256",
          "name": "value",
          "type": "uint256"
        }
      ],
      "name": "TransferSingle",
      "type": "event"
    },
    {
      "anonymous": false,
      "inputs": [
        {
          "indexed": false,
          "internalType": "string",
          "name": "value",
          "type": "string"
        },
        {
          "indexed": true,
          "internalType": "uint256",
          "name": "id",
          "type": "uint256"
        }
      ],
      "name": "URI",
      "type": "event"
    },
    {
      "inputs": [],
      "name": "AFRICA",
      "outputs": [
        {
          "internalType": "uint256",
          "name": "",
          "type": "uint256"
        }
      ],
      "stateMutability": "view",
      "type": "function"
    },
    {
      "inputs": [],
      "name": "ANTARCTICA",
      "outputs": [
        {
          "internalType": "uint256",
          "name": "",
          "type": "uint256"
        }
      ],
      "stateMutability": "view",
      "type": "function"
    },
    {
      "inputs": [],
      "name": "ASIA",
      "outputs": [
        {
          "internalType": "uint256",
          "name": "",
          "type": "uint256"
        }
      ],
      "stateMutability": "view",
      "type": "function"
    },
    {
      "inputs": [],
      "name": "AUSTRALIA",
      "outputs": [
        {
          "internalType": "uint256",
          "name": "",
          "type": "uint256"
        }
      ],
      "stateMutability": "view",
      "type": "function"
    },
    {
      "inputs": [],
      "name": "EUROPE",
      "outputs": [
        {
          "internalType": "uint256",
          "name": "",
          "type": "uint256"
        }
      ],
      "stateMutability": "view",
      "type": "function"
    },
    {
      "inputs": [],
      "name": "NORTH_AMERICA",
      "outputs": [
        {
          "internalType": "uint256",
          "name": "",
          "type": "uint256"
        }
      ],
      "stateMutability": "view",
      "type": "function"
    },
    {
      "inputs": [],
      "name": "OCEANIA",
      "outputs": [
        {
          "internalType": "uint256",
          "name": "",
          "type": "uint256"
        }
      ],
      "stateMutability": "view",
      "type": "function"
    },
    {
      "inputs": [],
      "name": "SOUTH_AMERICA",
      "outputs": [
        {
          "internalType": "uint256",
          "name": "",
          "type": "uint256"
        }
      ],
      "stateMutability": "view",
      "type": "function"
    },
    {
      "inputs": [
        {
          "internalType": "address",
          "name": "account",
          "type": "address"
        },
        {
          "internalType": "uint256",
          "name": "id",
          "type": "uint256"
        }
      ],
      "name": "balanceOf",
      "outputs": [
        {
          "internalType": "uint256",
          "name": "",
          "type": "uint256"
        }
      ],
      "stateMutability": "view",
      "type": "function"
    },
    {
      "inputs": [
        {
          "internalType": "address[]",
          "name": "accounts",
          "type": "address[]"
        },
        {
          "internalType": "uint256[]",
          "name": "ids",
          "type": "uint256[]"
        }
      ],
      "name": "balanceOfBatch",
      "outputs": [
        {
          "internalType": "uint256[]",
          "name": "",
          "type": "uint256[]"
        }
      ],
      "stateMutability": "view",
      "type": "function"
    },
    {
      "inputs": [
        {
          "internalType": "address",
          "name": "account",
          "type": "address"
        },
        {
          "internalType": "address",
          "name": "operator",
          "type": "address"
        }
      ],
      "name": "isApprovedForAll",
      "outputs": [
        {
          "internalType": "bool",
          "name": "",
          "type": "bool"
        }
      ],
      "stateMutability": "view",
      "type": "function"
    },
    {
      "inputs": [
        {
          "internalType": "address",
          "name": "from",
          "type": "address"
        },
        {
          "internalType": "address",
          "name": "to",
          "type": "address"
        },
        {
          "internalType": "uint256[]",
          "name": "ids",
          "type": "uint256[]"
        },
        {
          "internalType": "uint256[]",
          "name": "amounts",
          "type": "uint256[]"
        },
        {
          "internalType": "bytes",
          "name": "data",
          "type": "bytes"
        }
      ],
      "name": "safeBatchTransferFrom",
      "outputs": [],
      "stateMutability": "nonpayable",
      "type": "function"
    },
    {
      "inputs": [
        {
          "internalType": "address",
          "name": "from",
          "type": "address"
        },
        {
          "internalType": "address",
          "name": "to",
          "type": "address"
        },
        {
          "internalType": "uint256",
          "name": "id",
          "type": "uint256"
        },
        {
          "internalType": "uint256",
          "name": "amount",
          "type": "uint256"
        },
        {
          "internalType": "bytes",
          "name": "data",
          "type": "bytes"
        }
      ],
      "name": "safeTransferFrom",
      "outputs": [],
      "stateMutability": "nonpayable",
      "type": "function"
    },
    {
      "inputs": [
        {
          "internalType": "address",
          "name": "operator",
          "type": "address"
        },
        {
          "internalType": "bool",
          "name": "approved",
          "type": "bool"
        }
      ],
      "name": "setApprovalForAll",
      "outputs": [],
      "stateMutability": "nonpayable",
      "type": "function"
    },
    {
      "inputs": [
        {
          "internalType": "bytes4",
          "name": "interfaceId",
          "type": "bytes4"
        }
      ],
      "name": "supportsInterface",
      "outputs": [
        {
          "internalType": "bool",
          "name": "",
          "type": "bool"
        }
      ],
      "stateMutability": "view",
      "type": "function"
    },
    {
      "inputs": [
        {
          "internalType": "uint256",
          "name": "_tokenId",
          "type": "uint256"
        }
      ],
      "name": "uri",
      "outputs": [
        {
          "internalType": "string",
          "name": "",
          "type": "string"
        }
      ],
      "stateMutability": "view",
      "type": "function"
    }
  ],
  "bytecode": "0x60806040523480156200001157600080fd5b506040518060a00160405280606881526020016200376d606891396200003d816200017460201b60201c565b50620000643360006101f4604051806020016040528060008152506200019060201b60201c565b6200008a3360016101f4604051806020016040528060008152506200019060201b60201c565b620000b03360026101f4604051806020016040528060008152506200019060201b60201c565b620000d63360036101f4604051806020016040528060008152506200019060201b60201c565b620000fc3360046101f4604051806020016040528060008152506200019060201b60201c565b620001223360056101f4604051806020016040528060008152506200019060201b60201c565b620001483360066101f4604051806020016040528060008152506200019060201b60201c565b6200016e3360076101f4604051806020016040528060008152506200019060201b60201c565b62000d88565b80600290805190602001906200018c92919062000603565b5050565b600073ffffffffffffffffffffffffffffffffffffffff168473ffffffffffffffffffffffffffffffffffffffff16141562000203576040517f08c379a0000000000000000000000000000000000000000000000000000000008152600401620001fa90620008e1565b60405180910390fd5b6000620002156200035560201b60201c565b90506200024e8160008762000230886200035d60201b60201c565b62000241886200035d60201b60201c565b87620003de60201b60201c565b8260008086815260200190815260200160002060008773ffffffffffffffffffffffffffffffffffffffff1673ffffffffffffffffffffffffffffffffffffffff1681526020019081526020016000206000828254620002af919062000972565b925050819055508473ffffffffffffffffffffffffffffffffffffffff16600073ffffffffffffffffffffffffffffffffffffffff168273ffffffffffffffffffffffffffffffffffffffff167fc3d58168c5ae7397731d063d5bbf3d657854427343f4c083240f7aacaa2d0f6287876040516200032f92919062000903565b60405180910390a46200034e81600087878787620003e660201b60201c565b5050505050565b600033905090565b60606000600167ffffffffffffffff8111156200037f576200037e62000b68565b5b604051908082528060200260200182016040528015620003ae5781602001602082028036833780820191505090505b5090508281600081518110620003c957620003c862000b39565b5b60200260200101818152505080915050919050565b505050505050565b620004128473ffffffffffffffffffffffffffffffffffffffff16620005f060201b62000f2c1760201c565b15620005e8578373ffffffffffffffffffffffffffffffffffffffff1663f23a6e6187878686866040518663ffffffff1660e01b81526004016200045b95949392919062000815565b602060405180830381600087803b1580156200047657600080fd5b505af1925050508015620004aa57506040513d601f19601f82011682018060405250810190620004a79190620006ca565b60015b6200055c57620004b962000b97565b806308c379a014156200051d5750620004d162000ccc565b80620004de57506200051f565b806040517f08c379a000000000000000000000000000000000000000000000000000000000815260040162000514919062000879565b60405180910390fd5b505b6040517f08c379a000000000000000000000000000000000000000000000000000000000815260040162000553906200089d565b60405180910390fd5b63f23a6e6160e01b7bffffffffffffffffffffffffffffffffffffffffffffffffffffffff1916817bffffffffffffffffffffffffffffffffffffffffffffffffffffffff191614620005e6576040517f08c379a0000000000000000000000000000000000000000000000000000000008152600401620005dd90620008bf565b60405180910390fd5b505b505050505050565b600080823b905060008111915050919050565b828054620006119062000a6f565b90600052602060002090601f01602090048101928262000635576000855562000681565b82601f106200065057805160ff191683800117855562000681565b8280016001018555821562000681579182015b828111156200068057825182559160200191906001019062000663565b5b50905062000690919062000694565b5090565b5b80821115620006af57600081600090555060010162000695565b5090565b600081519050620006c48162000d6e565b92915050565b600060208284031215620006e357620006e262000bbc565b5b6000620006f384828501620006b3565b91505092915050565b6200070781620009cf565b82525050565b60006200071a826200093a565b62000726818562000950565b93506200073881856020860162000a39565b620007438162000bc1565b840191505092915050565b60006200075b8262000945565b62000767818562000961565b93506200077981856020860162000a39565b620007848162000bc1565b840191505092915050565b60006200079e60348362000961565b9150620007ab8262000bdf565b604082019050919050565b6000620007c560288362000961565b9150620007d28262000c2e565b604082019050919050565b6000620007ec60218362000961565b9150620007f98262000c7d565b604082019050919050565b6200080f8162000a2f565b82525050565b600060a0820190506200082c6000830188620006fc565b6200083b6020830187620006fc565b6200084a604083018662000804565b62000859606083018562000804565b81810360808301526200086d81846200070d565b90509695505050505050565b600060208201905081810360008301526200089581846200074e565b905092915050565b60006020820190508181036000830152620008b8816200078f565b9050919050565b60006020820190508181036000830152620008da81620007b6565b9050919050565b60006020820190508181036000830152620008fc81620007dd565b9050919050565b60006040820190506200091a600083018562000804565b62000929602083018462000804565b9392505050565b6000604051905090565b600081519050919050565b600081519050919050565b600082825260208201905092915050565b600082825260208201905092915050565b60006200097f8262000a2f565b91506200098c8362000a2f565b9250827fffffffffffffffffffffffffffffffffffffffffffffffffffffffffffffffff03821115620009c457620009c362000adb565b5b828201905092915050565b6000620009dc8262000a0f565b9050919050565b60007fffffffff0000000000000000000000000000000000000000000000000000000082169050919050565b600073ffffffffffffffffffffffffffffffffffffffff82169050919050565b6000819050919050565b60005b8381101562000a5957808201518184015260208101905062000a3c565b8381111562000a69576000848401525b50505050565b6000600282049050600182168062000a8857607f821691505b6020821081141562000a9f5762000a9e62000b0a565b5b50919050565b62000ab08262000bc1565b810181811067ffffffffffffffff8211171562000ad25762000ad162000b68565b5b80604052505050565b7f4e487b7100000000000000000000000000000000000000000000000000000000600052601160045260246000fd5b7f4e487b7100000000000000000000000000000000000000000000000000000000600052602260045260246000fd5b7f4e487b7100000000000000000000000000000000000000000000000000000000600052603260045260246000fd5b7f4e487b7100000000000000000000000000000000000000000000000000000000600052604160045260246000fd5b600060033d111562000bb95760046000803e62000bb660005162000bd2565b90505b90565b600080fd5b6000601f19601f8301169050919050565b60008160e01c9050919050565b7f455243313135353a207472616e7366657220746f206e6f6e204552433131353560008201527f526563656976657220696d706c656d656e746572000000000000000000000000602082015250565b7f455243313135353a204552433131353552656365697665722072656a6563746560008201527f6420746f6b656e73000000000000000000000000000000000000000000000000602082015250565b7f455243313135353a206d696e7420746f20746865207a65726f2061646472657360008201527f7300000000000000000000000000000000000000000000000000000000000000602082015250565b600060443d101562000cde5762000d6b565b62000ce862000930565b60043d036004823e80513d602482011167ffffffffffffffff8211171562000d1257505062000d6b565b808201805167ffffffffffffffff81111562000d32575050505062000d6b565b80602083010160043d03850181111562000d5157505050505062000d6b565b62000d628260200185018662000aa5565b82955050505050505b90565b62000d7981620009e3565b811462000d8557600080fd5b50565b6129d58062000d986000396000f3fe608060405234801561001057600080fd5b50600436106100ff5760003560e01c8063635cf34711610097578063db650c9111610066578063db650c91146102b0578063dfc03a67146102ce578063e985e9c5146102ec578063f242432a1461031c576100ff565b8063635cf3471461023a578063a22cb46514610258578063b39a7d7214610274578063cbeca71d14610292576100ff565b80632eb2c2d6116100d35780632eb2c2d6146101b2578063432d7ffe146101ce5780634e1273f4146101ec57806351f3e18c1461021c576100ff565b8062fdd58e1461010457806301ffc9a7146101345780630e89341c146101645780632385be9b14610194575b600080fd5b61011e6004803603810190610119919061195d565b610338565b60405161012b919061205a565b60405180910390f35b61014e60048036038101906101499190611a15565b610401565b60405161015b9190611edd565b60405180910390f35b61017e60048036038101906101799190611a6f565b6104e3565b60405161018b9190611ef8565b60405180910390f35b61019c610514565b6040516101a9919061205a565b60405180910390f35b6101cc60048036038101906101c791906117b7565b610519565b005b6101d66108c3565b6040516101e3919061205a565b60405180910390f35b6102066004803603810190610201919061199d565b6108c8565b6040516102139190611e84565b60405180910390f35b6102246109e1565b604051610231919061205a565b60405180910390f35b6102426109e6565b60405161024f919061205a565b60405180910390f35b610272600480360381019061026d919061191d565b6109eb565b005b61027c610b6c565b604051610289919061205a565b60405180910390f35b61029a610b71565b6040516102a7919061205a565b60405180910390f35b6102b8610b76565b6040516102c5919061205a565b60405180910390f35b6102d6610b7b565b6040516102e3919061205a565b60405180910390f35b61030660048036038101906103019190611777565b610b80565b6040516103139190611edd565b60405180910390f35b61033660048036038101906103319190611886565b610c14565b005b60008073ffffffffffffffffffffffffffffffffffffffff168373ffffffffffffffffffffffffffffffffffffffff1614156103a9576040517f08c379a00000000000000000000000000000000000000000000000000000000081526004016103a090611f5a565b60405180910390fd5b60008083815260200190815260200160002060008473ffffffffffffffffffffffffffffffffffffffff1673ffffffffffffffffffffffffffffffffffffffff16815260200190815260200160002054905092915050565b60007fd9b67a26000000000000000000000000000000000000000000000000000000007bffffffffffffffffffffffffffffffffffffffffffffffffffffffff1916827bffffffffffffffffffffffffffffffffffffffffffffffffffffffff191614806104cc57507f0e89341c000000000000000000000000000000000000000000000000000000007bffffffffffffffffffffffffffffffffffffffffffffffffffffffff1916827bffffffffffffffffffffffffffffffffffffffffffffffffffffffff1916145b806104dc57506104db82610f3f565b5b9050919050565b60606104ee82610fa9565b6040516020016104fe9190611d95565b6040516020818303038152906040529050919050565b600781565b815183511461055d576040517f08c379a00000000000000000000000000000000000000000000000000000000081526004016105549061203a565b60405180910390fd5b600073ffffffffffffffffffffffffffffffffffffffff168473ffffffffffffffffffffffffffffffffffffffff1614156105cd576040517f08c379a00000000000000000000000000000000000000000000000000000000081526004016105c490611f9a565b60405180910390fd5b6105d561110a565b73ffffffffffffffffffffffffffffffffffffffff168573ffffffffffffffffffffffffffffffffffffffff16148061061b575061061a8561061561110a565b610b80565b5b61065a576040517f08c379a000000000000000000000000000000000000000000000000000000000815260040161065190611fba565b60405180910390fd5b600061066461110a565b9050610674818787878787611112565b60005b845181101561082e57600085828151811061069557610694612442565b5b6020026020010151905060008583815181106106b4576106b3612442565b5b60200260200101519050600080600084815260200190815260200160002060008b73ffffffffffffffffffffffffffffffffffffffff1673ffffffffffffffffffffffffffffffffffffffff16815260200190815260200160002054905081811015610755576040517f08c379a000000000000000000000000000000000000000000000000000000000815260040161074c90611fda565b60405180910390fd5b8181610761919061224f565b60008085815260200190815260200160002060008c73ffffffffffffffffffffffffffffffffffffffff1673ffffffffffffffffffffffffffffffffffffffff168152602001908152602001600020819055508160008085815260200190815260200160002060008b73ffffffffffffffffffffffffffffffffffffffff1673ffffffffffffffffffffffffffffffffffffffff168152602001908152602001600020600082825461081391906121c8565b92505081905550505050806108279061236a565b9050610677565b508473ffffffffffffffffffffffffffffffffffffffff168673ffffffffffffffffffffffffffffffffffffffff168273ffffffffffffffffffffffffffffffffffffffff167f4a39dc06d4c0dbc64b70af90fd698a233a518aa5d07e595d983b8c0526c8f7fb87876040516108a5929190611ea6565b60405180910390a46108bb81878787878761111a565b505050505050565b600281565b6060815183511461090e576040517f08c379a00000000000000000000000000000000000000000000000000000000081526004016109059061201a565b60405180910390fd5b6000835167ffffffffffffffff81111561092b5761092a612471565b5b6040519080825280602002602001820160405280156109595781602001602082028036833780820191505090505b50905060005b84518110156109d6576109a685828151811061097e5761097d612442565b5b602002602001015185838151811061099957610998612442565b5b6020026020010151610338565b8282815181106109b9576109b8612442565b5b602002602001018181525050806109cf9061236a565b905061095f565b508091505092915050565b600181565b600581565b8173ffffffffffffffffffffffffffffffffffffffff16610a0a61110a565b73ffffffffffffffffffffffffffffffffffffffff161415610a61576040517f08c379a0000000000000000000000000000000000000000000000000000000008152600401610a5890611ffa565b60405180910390fd5b8060016000610a6e61110a565b73ffffffffffffffffffffffffffffffffffffffff1673ffffffffffffffffffffffffffffffffffffffff16815260200190815260200160002060008473ffffffffffffffffffffffffffffffffffffffff1673ffffffffffffffffffffffffffffffffffffffff16815260200190815260200160002060006101000a81548160ff0219169083151502179055508173ffffffffffffffffffffffffffffffffffffffff16610b1b61110a565b73ffffffffffffffffffffffffffffffffffffffff167f17307eab39ab6107e8899845ad3d59bd9653f200f220920489ca2b5937696c3183604051610b609190611edd565b60405180910390a35050565b600381565b600681565b600081565b600481565b6000600160008473ffffffffffffffffffffffffffffffffffffffff1673ffffffffffffffffffffffffffffffffffffffff16815260200190815260200160002060008373ffffffffffffffffffffffffffffffffffffffff1673ffffffffffffffffffffffffffffffffffffffff16815260200190815260200160002060009054906101000a900460ff16905092915050565b600073ffffffffffffffffffffffffffffffffffffffff168473ffffffffffffffffffffffffffffffffffffffff161415610c84576040517f08c379a0000000000000000000000000000000000000000000000000000000008152600401610c7b90611f9a565b60405180910390fd5b610c8c61110a565b73ffffffffffffffffffffffffffffffffffffffff168573ffffffffffffffffffffffffffffffffffffffff161480610cd25750610cd185610ccc61110a565b610b80565b5b610d11576040517f08c379a0000000000000000000000000000000000000000000000000000000008152600401610d0890611f7a565b60405180910390fd5b6000610d1b61110a565b9050610d3b818787610d2c88611301565b610d3588611301565b87611112565b600080600086815260200190815260200160002060008873ffffffffffffffffffffffffffffffffffffffff1673ffffffffffffffffffffffffffffffffffffffff16815260200190815260200160002054905083811015610dd2576040517f08c379a0000000000000000000000000000000000000000000000000000000008152600401610dc990611fda565b60405180910390fd5b8381610dde919061224f565b60008087815260200190815260200160002060008973ffffffffffffffffffffffffffffffffffffffff1673ffffffffffffffffffffffffffffffffffffffff168152602001908152602001600020819055508360008087815260200190815260200160002060008873ffffffffffffffffffffffffffffffffffffffff1673ffffffffffffffffffffffffffffffffffffffff1681526020019081526020016000206000828254610e9091906121c8565b925050819055508573ffffffffffffffffffffffffffffffffffffffff168773ffffffffffffffffffffffffffffffffffffffff168373ffffffffffffffffffffffffffffffffffffffff167fc3d58168c5ae7397731d063d5bbf3d657854427343f4c083240f7aacaa2d0f628888604051610f0d929190612075565b60405180910390a4610f2382888888888861137b565b50505050505050565b600080823b905060008111915050919050565b60007f01ffc9a7000000000000000000000000000000000000000000000000000000007bffffffffffffffffffffffffffffffffffffffffffffffffffffffff1916827bffffffffffffffffffffffffffffffffffffffffffffffffffffffff1916149050919050565b60606000821415610ff1576040518060400160405280600181526020017f30000000000000000000000000000000000000000000000000000000000000008152509050611105565b600082905060005b6000821461102357808061100c9061236a565b915050600a8261101c919061221e565b9150610ff9565b60008167ffffffffffffffff81111561103f5761103e612471565b5b6040519080825280601f01601f1916602001820160405280156110715781602001600182028036833780820191505090505b5090505b600085146110fe5760018261108a919061224f565b9150600a8561109991906123b3565b60306110a591906121c8565b60f81b8183815181106110bb576110ba612442565b5b60200101907effffffffffffffffffffffffffffffffffffffffffffffffffffffffffffff1916908160001a905350600a856110f7919061221e565b9450611075565b8093505050505b919050565b600033905090565b505050505050565b6111398473ffffffffffffffffffffffffffffffffffffffff16610f2c565b156112f9578373ffffffffffffffffffffffffffffffffffffffff1663bc197c8187878686866040518663ffffffff1660e01b815260040161117f959493929190611dc2565b602060405180830381600087803b15801561119957600080fd5b505af19250505080156111ca57506040513d601f19601f820116820180604052508101906111c79190611a42565b60015b611270576111d66124a0565b806308c379a0141561123357506111eb6128ad565b806111f65750611235565b806040517f08c379a000000000000000000000000000000000000000000000000000000000815260040161122a9190611ef8565b60405180910390fd5b505b6040517f08c379a000000000000000000000000000000000000000000000000000000000815260040161126790611f1a565b60405180910390fd5b63bc197c8160e01b7bffffffffffffffffffffffffffffffffffffffffffffffffffffffff1916817bffffffffffffffffffffffffffffffffffffffffffffffffffffffff1916146112f7576040517f08c379a00000000000000000000000000000000000000000000000000000000081526004016112ee90611f3a565b60405180910390fd5b505b505050505050565b60606000600167ffffffffffffffff8111156113205761131f612471565b5b60405190808252806020026020018201604052801561134e5781602001602082028036833780820191505090505b509050828160008151811061136657611365612442565b5b60200260200101818152505080915050919050565b61139a8473ffffffffffffffffffffffffffffffffffffffff16610f2c565b1561155a578373ffffffffffffffffffffffffffffffffffffffff1663f23a6e6187878686866040518663ffffffff1660e01b81526004016113e0959493929190611e2a565b602060405180830381600087803b1580156113fa57600080fd5b505af192505050801561142b57506040513d601f19601f820116820180604052508101906114289190611a42565b60015b6114d1576114376124a0565b806308c379a01415611494575061144c6128ad565b806114575750611496565b806040517f08c379a000000000000000000000000000000000000000000000000000000000815260040161148b9190611ef8565b60405180910390fd5b505b6040517f08c379a00000000000000000000000000000000000000000000000000000000081526004016114c890611f1a565b60405180910390fd5b63f23a6e6160e01b7bffffffffffffffffffffffffffffffffffffffffffffffffffffffff1916817bffffffffffffffffffffffffffffffffffffffffffffffffffffffff191614611558576040517f08c379a000000000000000000000000000000000000000000000000000000000815260040161154f90611f3a565b60405180910390fd5b505b505050505050565b6000611575611570846120c3565b61209e565b90508083825260208201905082856020860282011115611598576115976124c7565b5b60005b858110156115c857816115ae8882611684565b84526020840193506020830192505060018101905061159b565b5050509392505050565b60006115e56115e0846120ef565b61209e565b90508083825260208201905082856020860282011115611608576116076124c7565b5b60005b85811015611638578161161e8882611762565b84526020840193506020830192505060018101905061160b565b5050509392505050565b60006116556116508461211b565b61209e565b905082815260208101848484011115611671576116706124cc565b5b61167c8482856122f7565b509392505050565b60008135905061169381612943565b92915050565b600082601f8301126116ae576116ad6124c2565b5b81356116be848260208601611562565b91505092915050565b600082601f8301126116dc576116db6124c2565b5b81356116ec8482602086016115d2565b91505092915050565b6000813590506117048161295a565b92915050565b60008135905061171981612971565b92915050565b60008151905061172e81612971565b92915050565b600082601f830112611749576117486124c2565b5b8135611759848260208601611642565b91505092915050565b60008135905061177181612988565b92915050565b6000806040838503121561178e5761178d6124d6565b5b600061179c85828601611684565b92505060206117ad85828601611684565b9150509250929050565b600080600080600060a086880312156117d3576117d26124d6565b5b60006117e188828901611684565b95505060206117f288828901611684565b945050604086013567ffffffffffffffff811115611813576118126124d1565b5b61181f888289016116c7565b935050606086013567ffffffffffffffff8111156118405761183f6124d1565b5b61184c888289016116c7565b925050608086013567ffffffffffffffff81111561186d5761186c6124d1565b5b61187988828901611734565b9150509295509295909350565b600080600080600060a086880312156118a2576118a16124d6565b5b60006118b088828901611684565b95505060206118c188828901611684565b94505060406118d288828901611762565b93505060606118e388828901611762565b925050608086013567ffffffffffffffff811115611904576119036124d1565b5b61191088828901611734565b9150509295509295909350565b60008060408385031215611934576119336124d6565b5b600061194285828601611684565b9250506020611953858286016116f5565b9150509250929050565b60008060408385031215611974576119736124d6565b5b600061198285828601611684565b925050602061199385828601611762565b9150509250929050565b600080604083850312156119b4576119b36124d6565b5b600083013567ffffffffffffffff8111156119d2576119d16124d1565b5b6119de85828601611699565b925050602083013567ffffffffffffffff8111156119ff576119fe6124d1565b5b611a0b858286016116c7565b9150509250929050565b600060208284031215611a2b57611a2a6124d6565b5b6000611a398482850161170a565b91505092915050565b600060208284031215611a5857611a576124d6565b5b6000611a668482850161171f565b91505092915050565b600060208284031215611a8557611a846124d6565b5b6000611a9384828501611762565b91505092915050565b6000611aa88383611d77565b60208301905092915050565b611abd81612283565b82525050565b6000611ace8261215c565b611ad8818561218a565b9350611ae38361214c565b8060005b83811015611b14578151611afb8882611a9c565b9750611b068361217d565b925050600181019050611ae7565b5085935050505092915050565b611b2a81612295565b82525050565b6000611b3b82612167565b611b45818561219b565b9350611b55818560208601612306565b611b5e816124db565b840191505092915050565b6000611b7482612172565b611b7e81856121ac565b9350611b8e818560208601612306565b611b97816124db565b840191505092915050565b6000611bad82612172565b611bb781856121bd565b9350611bc7818560208601612306565b80840191505092915050565b6000611be06034836121ac565b9150611beb826124f9565b604082019050919050565b6000611c036028836121ac565b9150611c0e82612548565b604082019050919050565b6000611c26602b836121ac565b9150611c3182612597565b604082019050919050565b6000611c496029836121ac565b9150611c54826125e6565b604082019050919050565b6000611c6c6025836121ac565b9150611c7782612635565b604082019050919050565b6000611c8f6032836121ac565b9150611c9a82612684565b604082019050919050565b6000611cb2605f836121bd565b9150611cbd826126d3565b605f82019050919050565b6000611cd5602a836121ac565b9150611ce082612748565b604082019050919050565b6000611cf86005836121bd565b9150611d0382612797565b600582019050919050565b6000611d1b6029836121ac565b9150611d26826127c0565b604082019050919050565b6000611d3e6029836121ac565b9150611d498261280f565b604082019050919050565b6000611d616028836121ac565b9150611d6c8261285e565b604082019050919050565b611d80816122ed565b82525050565b611d8f816122ed565b82525050565b6000611da082611ca5565b9150611dac8284611ba2565b9150611db782611ceb565b915081905092915050565b600060a082019050611dd76000830188611ab4565b611de46020830187611ab4565b8181036040830152611df68186611ac3565b90508181036060830152611e0a8185611ac3565b90508181036080830152611e1e8184611b30565b90509695505050505050565b600060a082019050611e3f6000830188611ab4565b611e4c6020830187611ab4565b611e596040830186611d86565b611e666060830185611d86565b8181036080830152611e788184611b30565b90509695505050505050565b60006020820190508181036000830152611e9e8184611ac3565b905092915050565b60006040820190508181036000830152611ec08185611ac3565b90508181036020830152611ed48184611ac3565b90509392505050565b6000602082019050611ef26000830184611b21565b92915050565b60006020820190508181036000830152611f128184611b69565b905092915050565b60006020820190508181036000830152611f3381611bd3565b9050919050565b60006020820190508181036000830152611f5381611bf6565b9050919050565b60006020820190508181036000830152611f7381611c19565b9050919050565b60006020820190508181036000830152611f9381611c3c565b9050919050565b60006020820190508181036000830152611fb381611c5f565b9050919050565b60006020820190508181036000830152611fd381611c82565b9050919050565b60006020820190508181036000830152611ff381611cc8565b9050919050565b6000602082019050818103600083015261201381611d0e565b9050919050565b6000602082019050818103600083015261203381611d31565b9050919050565b6000602082019050818103600083015261205381611d54565b9050919050565b600060208201905061206f6000830184611d86565b92915050565b600060408201905061208a6000830185611d86565b6120976020830184611d86565b9392505050565b60006120a86120b9565b90506120b48282612339565b919050565b6000604051905090565b600067ffffffffffffffff8211156120de576120dd612471565b5b602082029050602081019050919050565b600067ffffffffffffffff82111561210a57612109612471565b5b602082029050602081019050919050565b600067ffffffffffffffff82111561213657612135612471565b5b61213f826124db565b9050602081019050919050565b6000819050602082019050919050565b600081519050919050565b600081519050919050565b600081519050919050565b6000602082019050919050565b600082825260208201905092915050565b600082825260208201905092915050565b600082825260208201905092915050565b600081905092915050565b60006121d3826122ed565b91506121de836122ed565b9250827fffffffffffffffffffffffffffffffffffffffffffffffffffffffffffffffff03821115612213576122126123e4565b5b828201905092915050565b6000612229826122ed565b9150612234836122ed565b92508261224457612243612413565b5b828204905092915050565b600061225a826122ed565b9150612265836122ed565b925082821015612278576122776123e4565b5b828203905092915050565b600061228e826122cd565b9050919050565b60008115159050919050565b60007fffffffff0000000000000000000000000000000000000000000000000000000082169050919050565b600073ffffffffffffffffffffffffffffffffffffffff82169050919050565b6000819050919050565b82818337600083830152505050565b60005b83811015612324578082015181840152602081019050612309565b83811115612333576000848401525b50505050565b612342826124db565b810181811067ffffffffffffffff8211171561236157612360612471565b5b80604052505050565b6000612375826122ed565b91507fffffffffffffffffffffffffffffffffffffffffffffffffffffffffffffffff8214156123a8576123a76123e4565b5b600182019050919050565b60006123be826122ed565b91506123c9836122ed565b9250826123d9576123d8612413565b5b828206905092915050565b7f4e487b7100000000000000000000000000000000000000000000000000000000600052601160045260246000fd5b7f4e487b7100000000000000000000000000000000000000000000000000000000600052601260045260246000fd5b7f4e487b7100000000000000000000000000000000000000000000000000000000600052603260045260246000fd5b7f4e487b7100000000000000000000000000000000000000000000000000000000600052604160045260246000fd5b600060033d11156124bf5760046000803e6124bc6000516124ec565b90505b90565b600080fd5b600080fd5b600080fd5b600080fd5b600080fd5b6000601f19601f8301169050919050565b60008160e01c9050919050565b7f455243313135353a207472616e7366657220746f206e6f6e204552433131353560008201527f526563656976657220696d706c656d656e746572000000000000000000000000602082015250565b7f455243313135353a204552433131353552656365697665722072656a6563746560008201527f6420746f6b656e73000000000000000000000000000000000000000000000000602082015250565b7f455243313135353a2062616c616e636520717565727920666f7220746865207a60008201527f65726f2061646472657373000000000000000000000000000000000000000000602082015250565b7f455243313135353a2063616c6c6572206973206e6f74206f776e6572206e6f7260008201527f20617070726f7665640000000000000000000000000000000000000000000000602082015250565b7f455243313135353a207472616e7366657220746f20746865207a65726f20616460008201527f6472657373000000000000000000000000000000000000000000000000000000602082015250565b7f455243313135353a207472616e736665722063616c6c6572206973206e6f742060008201527f6f776e6572206e6f7220617070726f7665640000000000000000000000000000602082015250565b7f68747470733a2f2f7261772e67697468756275736572636f6e74656e742e636f60008201527f6d2f486f646f2d4e6574776f726b2f686f646f2d6e6574776f726b2e6769746860208201527f75622e696f2f6d61696e2f6d657461646174612f436f6e74696e656e74732f00604082015250565b7f455243313135353a20696e73756666696369656e742062616c616e636520666f60008201527f72207472616e7366657200000000000000000000000000000000000000000000602082015250565b7f2e6a736f6e000000000000000000000000000000000000000000000000000000600082015250565b7f455243313135353a2073657474696e6720617070726f76616c2073746174757360008201527f20666f722073656c660000000000000000000000000000000000000000000000602082015250565b7f455243313135353a206163636f756e747320616e6420696473206c656e67746860008201527f206d69736d617463680000000000000000000000000000000000000000000000602082015250565b7f455243313135353a2069647320616e6420616d6f756e7473206c656e6774682060008201527f6d69736d61746368000000000000000000000000000000000000000000000000602082015250565b600060443d10156128bd57612940565b6128c56120b9565b60043d036004823e80513d602482011167ffffffffffffffff821117156128ed575050612940565b808201805167ffffffffffffffff81111561290b5750505050612940565b80602083010160043d038501811115612928575050505050612940565b61293782602001850186612339565b82955050505050505b90565b61294c81612283565b811461295757600080fd5b50565b61296381612295565b811461296e57600080fd5b50565b61297a816122a1565b811461298557600080fd5b50565b612991816122ed565b811461299c57600080fd5b5056fea2646970667358221220cbf27d3c0a08006e0e22988258205c5a797727b2cbf6ac347f52992567a27fea64736f6c6343000807003368747470733a2f2f7261772e67697468756275736572636f6e74656e742e636f6d2f486f646f2d4e6574776f726b2f686f646f2d6e6574776f726b2e6769746875622e696f2f6d61696e2f6d657461646174612f436f6e74696e656e74732f7b69647d2e6a736f6e",
  "linkReferences": {},
  "deployedLinkReferences": {}
}