{
  "_format": "hh-sol-artifact-1",
  "contractName": "Continents",
  "sourceName": "contracts/Continents.sol",
  "abi": [
    {
      "inputs": [
        {
          "internalType": "string",
          "name": "customBaseURI_",
          "type": "string"
        }
      ],
      "stateMutability": "nonpayable",
      "type": "constructor"
    },
    {
      "anonymous": false,
      "inputs": [
        {
          "indexed": true,
          "internalType": "address",
          "name": "owner",
          "type": "address"
        },
        {
          "indexed": true,
          "internalType": "address",
          "name": "approved",
          "type": "address"
        },
        {
          "indexed": true,
          "internalType": "uint256",
          "name": "tokenId",
          "type": "uint256"
        }
      ],
      "name": "Approval",
      "type": "event"
    },
    {
      "anonymous": false,
      "inputs": [
        {
          "indexed": true,
          "internalType": "address",
          "name": "owner",
          "type": "address"
        },
        {
          "indexed": true,
          "internalType": "address",
          "name": "operator",
          "type": "address"
        },
        {
          "indexed": false,
          "internalType": "bool",
          "name": "approved",
          "type": "bool"
        }
      ],
      "name": "ApprovalForAll",
      "type": "event"
    },
    {
      "anonymous": false,
      "inputs": [
        {
          "indexed": true,
          "internalType": "address",
          "name": "previousOwner",
          "type": "address"
        },
        {
          "indexed": true,
          "internalType": "address",
          "name": "newOwner",
          "type": "address"
        }
      ],
      "name": "OwnershipTransferred",
      "type": "event"
    },
    {
      "anonymous": false,
      "inputs": [
        {
          "indexed": true,
          "internalType": "address",
          "name": "from",
          "type": "address"
        },
        {
          "indexed": true,
          "internalType": "address",
          "name": "to",
          "type": "address"
        },
        {
          "indexed": true,
          "internalType": "uint256",
          "name": "tokenId",
          "type": "uint256"
        }
      ],
      "name": "Transfer",
      "type": "event"
    },
    {
      "inputs": [],
      "name": "MAX_MULTIMINT",
      "outputs": [
        {
          "internalType": "uint256",
          "name": "",
          "type": "uint256"
        }
      ],
      "stateMutability": "view",
      "type": "function"
    },
    {
      "inputs": [],
      "name": "MAX_SUPPLY",
      "outputs": [
        {
          "internalType": "uint256",
          "name": "",
          "type": "uint256"
        }
      ],
      "stateMutability": "view",
      "type": "function"
    },
    {
      "inputs": [],
      "name": "PRICE",
      "outputs": [
        {
          "internalType": "uint256",
          "name": "",
          "type": "uint256"
        }
      ],
      "stateMutability": "view",
      "type": "function"
    },
    {
      "inputs": [
        {
          "internalType": "address",
          "name": "to",
          "type": "address"
        },
        {
          "internalType": "uint256",
          "name": "tokenId",
          "type": "uint256"
        }
      ],
      "name": "approve",
      "outputs": [],
      "stateMutability": "nonpayable",
      "type": "function"
    },
    {
      "inputs": [
        {
          "internalType": "address",
          "name": "owner",
          "type": "address"
        }
      ],
      "name": "balanceOf",
      "outputs": [
        {
          "internalType": "uint256",
          "name": "",
          "type": "uint256"
        }
      ],
      "stateMutability": "view",
      "type": "function"
    },
    {
      "inputs": [
        {
          "internalType": "uint256",
          "name": "tokenId",
          "type": "uint256"
        }
      ],
      "name": "getApproved",
      "outputs": [
        {
          "internalType": "address",
          "name": "",
          "type": "address"
        }
      ],
      "stateMutability": "view",
      "type": "function"
    },
    {
      "inputs": [
        {
          "internalType": "address",
          "name": "owner",
          "type": "address"
        },
        {
          "internalType": "address",
          "name": "operator",
          "type": "address"
        }
      ],
      "name": "isApprovedForAll",
      "outputs": [
        {
          "internalType": "bool",
          "name": "",
          "type": "bool"
        }
      ],
      "stateMutability": "view",
      "type": "function"
    },
    {
      "inputs": [
        {
          "internalType": "uint256",
          "name": "count",
          "type": "uint256"
        }
      ],
      "name": "mint",
      "outputs": [],
      "stateMutability": "payable",
      "type": "function"
    },
    {
      "inputs": [],
      "name": "name",
      "outputs": [
        {
          "internalType": "string",
          "name": "",
          "type": "string"
        }
      ],
      "stateMutability": "view",
      "type": "function"
    },
    {
      "inputs": [],
      "name": "owner",
      "outputs": [
        {
          "internalType": "address",
          "name": "",
          "type": "address"
        }
      ],
      "stateMutability": "view",
      "type": "function"
    },
    {
      "inputs": [
        {
          "internalType": "uint256",
          "name": "tokenId",
          "type": "uint256"
        }
      ],
      "name": "ownerOf",
      "outputs": [
        {
          "internalType": "address",
          "name": "",
          "type": "address"
        }
      ],
      "stateMutability": "view",
      "type": "function"
    },
    {
      "inputs": [],
      "name": "renounceOwnership",
      "outputs": [],
      "stateMutability": "nonpayable",
      "type": "function"
    },
    {
      "inputs": [
        {
          "internalType": "address",
          "name": "from",
          "type": "address"
        },
        {
          "internalType": "address",
          "name": "to",
          "type": "address"
        },
        {
          "internalType": "uint256",
          "name": "tokenId",
          "type": "uint256"
        }
      ],
      "name": "safeTransferFrom",
      "outputs": [],
      "stateMutability": "nonpayable",
      "type": "function"
    },
    {
      "inputs": [
        {
          "internalType": "address",
          "name": "from",
          "type": "address"
        },
        {
          "internalType": "address",
          "name": "to",
          "type": "address"
        },
        {
          "internalType": "uint256",
          "name": "tokenId",
          "type": "uint256"
        },
        {
          "internalType": "bytes",
          "name": "_data",
          "type": "bytes"
        }
      ],
      "name": "safeTransferFrom",
      "outputs": [],
      "stateMutability": "nonpayable",
      "type": "function"
    },
    {
      "inputs": [],
      "name": "saleIsActive",
      "outputs": [
        {
          "internalType": "bool",
          "name": "",
          "type": "bool"
        }
      ],
      "stateMutability": "view",
      "type": "function"
    },
    {
      "inputs": [
        {
          "internalType": "address",
          "name": "operator",
          "type": "address"
        },
        {
          "internalType": "bool",
          "name": "approved",
          "type": "bool"
        }
      ],
      "name": "setApprovalForAll",
      "outputs": [],
      "stateMutability": "nonpayable",
      "type": "function"
    },
    {
      "inputs": [
        {
          "internalType": "string",
          "name": "customBaseURI_",
          "type": "string"
        }
      ],
      "name": "setBaseURI",
      "outputs": [],
      "stateMutability": "nonpayable",
      "type": "function"
    },
    {
      "inputs": [
        {
          "internalType": "bool",
          "name": "saleIsActive_",
          "type": "bool"
        }
      ],
      "name": "setSaleIsActive",
      "outputs": [],
      "stateMutability": "nonpayable",
      "type": "function"
    },
    {
      "inputs": [
        {
          "internalType": "bytes4",
          "name": "interfaceId",
          "type": "bytes4"
        }
      ],
      "name": "supportsInterface",
      "outputs": [
        {
          "internalType": "bool",
          "name": "",
          "type": "bool"
        }
      ],
      "stateMutability": "view",
      "type": "function"
    },
    {
      "inputs": [],
      "name": "symbol",
      "outputs": [
        {
          "internalType": "string",
          "name": "",
          "type": "string"
        }
      ],
      "stateMutability": "view",
      "type": "function"
    },
    {
      "inputs": [
        {
          "internalType": "uint256",
          "name": "tokenId",
          "type": "uint256"
        }
      ],
      "name": "tokenURI",
      "outputs": [
        {
          "internalType": "string",
          "name": "",
          "type": "string"
        }
      ],
      "stateMutability": "view",
      "type": "function"
    },
    {
      "inputs": [],
      "name": "totalSupply",
      "outputs": [
        {
          "internalType": "uint256",
          "name": "",
          "type": "uint256"
        }
      ],
      "stateMutability": "view",
      "type": "function"
    },
    {
      "inputs": [
        {
          "internalType": "address",
          "name": "from",
          "type": "address"
        },
        {
          "internalType": "address",
          "name": "to",
          "type": "address"
        },
        {
          "internalType": "uint256",
          "name": "tokenId",
          "type": "uint256"
        }
      ],
      "name": "transferFrom",
      "outputs": [],
      "stateMutability": "nonpayable",
      "type": "function"
    },
    {
      "inputs": [
        {
          "internalType": "address",
          "name": "newOwner",
          "type": "address"
        }
      ],
      "name": "transferOwnership",
      "outputs": [],
      "stateMutability": "nonpayable",
      "type": "function"
    },
    {
      "inputs": [],
      "name": "withdraw",
      "outputs": [],
      "stateMutability": "nonpayable",
      "type": "function"
    }
  ],
  "bytecode": "0x60806040526000600960006101000a81548160ff0219169083151502179055503480156200002c57600080fd5b5060405162003c2238038062003c22833981810160405281019062000052919062000301565b6040518060400160405280600a81526020017f436f6e74696e656e7473000000000000000000000000000000000000000000008152506040518060400160405280600481526020017f54544b4e000000000000000000000000000000000000000000000000000000008152508160009080519060200190620000d6929190620001d3565b508060019080519060200190620000ef929190620001d3565b505050600160068190555060006200010c620001cb60201b60201c565b905080600760006101000a81548173ffffffffffffffffffffffffffffffffffffffff021916908373ffffffffffffffffffffffffffffffffffffffff1602179055508073ffffffffffffffffffffffffffffffffffffffff16600073ffffffffffffffffffffffffffffffffffffffff167f8be0079c531659141344cd1fd0a4f28419497f9722a3daafe3b4186f6b6457e060405160405180910390a35080600a9080519060200190620001c3929190620001d3565b5050620004d6565b600033905090565b828054620001e190620003e7565b90600052602060002090601f01602090048101928262000205576000855562000251565b82601f106200022057805160ff191683800117855562000251565b8280016001018555821562000251579182015b828111156200025057825182559160200191906001019062000233565b5b50905062000260919062000264565b5090565b5b808211156200027f57600081600090555060010162000265565b5090565b60006200029a62000294846200037b565b62000352565b905082815260208101848484011115620002b957620002b8620004b6565b5b620002c6848285620003b1565b509392505050565b600082601f830112620002e657620002e5620004b1565b5b8151620002f884826020860162000283565b91505092915050565b6000602082840312156200031a5762000319620004c0565b5b600082015167ffffffffffffffff8111156200033b576200033a620004bb565b5b6200034984828501620002ce565b91505092915050565b60006200035e62000371565b90506200036c82826200041d565b919050565b6000604051905090565b600067ffffffffffffffff82111562000399576200039862000482565b5b620003a482620004c5565b9050602081019050919050565b60005b83811015620003d1578082015181840152602081019050620003b4565b83811115620003e1576000848401525b50505050565b600060028204905060018216806200040057607f821691505b6020821081141562000417576200041662000453565b5b50919050565b6200042882620004c5565b810181811067ffffffffffffffff821117156200044a576200044962000482565b5b80604052505050565b7f4e487b7100000000000000000000000000000000000000000000000000000000600052602260045260246000fd5b7f4e487b7100000000000000000000000000000000000000000000000000000000600052604160045260246000fd5b600080fd5b600080fd5b600080fd5b600080fd5b6000601f19601f8301169050919050565b61373c80620004e66000396000f3fe6080604052600436106101665760003560e01c806370a08231116100d1578063a22cb4651161008a578063c87b56dd11610064578063c87b56dd146104f5578063e985e9c514610532578063eb8d24441461056f578063f2fde38b1461059a57610166565b8063a22cb46514610478578063b88d4fde146104a1578063b8fc1051146104ca57610166565b806370a0823114610387578063715018a6146103c45780638d859f3e146103db5780638da5cb5b1461040657806395d89b4114610431578063a0712d681461045c57610166565b806323b872dd1161012357806323b872dd1461028d57806332cb6b0c146102b65780633ccfd60b146102e157806342842e0e146102f857806355f804b3146103215780636352211e1461034a57610166565b806301ffc9a71461016b57806302c88989146101a857806306fdde03146101d1578063081812fc146101fc578063095ea7b31461023957806318160ddd14610262575b600080fd5b34801561017757600080fd5b50610192600480360381019061018d919061246d565b6105c3565b60405161019f91906129bc565b60405180910390f35b3480156101b457600080fd5b506101cf60048036038101906101ca9190612440565b6106a5565b005b3480156101dd57600080fd5b506101e661073e565b6040516101f391906129d7565b60405180910390f35b34801561020857600080fd5b50610223600480360381019061021e9190612510565b6107d0565b6040516102309190612955565b60405180910390f35b34801561024557600080fd5b50610260600480360381019061025b9190612400565b610855565b005b34801561026e57600080fd5b5061027761096d565b6040516102849190612c99565b60405180910390f35b34801561029957600080fd5b506102b460048036038101906102af91906122ea565b61097e565b005b3480156102c257600080fd5b506102cb6109de565b6040516102d89190612c99565b60405180910390f35b3480156102ed57600080fd5b506102f66109e4565b005b34801561030457600080fd5b5061031f600480360381019061031a91906122ea565b610a3a565b005b34801561032d57600080fd5b50610348600480360381019061034391906124c7565b610a5a565b005b34801561035657600080fd5b50610371600480360381019061036c9190612510565b610af0565b60405161037e9190612955565b60405180910390f35b34801561039357600080fd5b506103ae60048036038101906103a9919061227d565b610ba2565b6040516103bb9190612c99565b60405180910390f35b3480156103d057600080fd5b506103d9610c5a565b005b3480156103e757600080fd5b506103f0610d97565b6040516103fd9190612c99565b60405180910390f35b34801561041257600080fd5b5061041b610da3565b6040516104289190612955565b60405180910390f35b34801561043d57600080fd5b50610446610dcd565b60405161045391906129d7565b60405180910390f35b61047660048036038101906104719190612510565b610e5f565b005b34801561048457600080fd5b5061049f600480360381019061049a91906123c0565b611044565b005b3480156104ad57600080fd5b506104c860048036038101906104c3919061233d565b6111c5565b005b3480156104d657600080fd5b506104df611227565b6040516104ec9190612c99565b60405180910390f35b34801561050157600080fd5b5061051c60048036038101906105179190612510565b61122c565b60405161052991906129d7565b60405180910390f35b34801561053e57600080fd5b50610559600480360381019061055491906122aa565b61125d565b60405161056691906129bc565b60405180910390f35b34801561057b57600080fd5b506105846112f1565b60405161059191906129bc565b60405180910390f35b3480156105a657600080fd5b506105c160048036038101906105bc919061227d565b611304565b005b60007f80ac58cd000000000000000000000000000000000000000000000000000000007bffffffffffffffffffffffffffffffffffffffffffffffffffffffff1916827bffffffffffffffffffffffffffffffffffffffffffffffffffffffff1916148061068e57507f5b5e139f000000000000000000000000000000000000000000000000000000007bffffffffffffffffffffffffffffffffffffffffffffffffffffffff1916827bffffffffffffffffffffffffffffffffffffffffffffffffffffffff1916145b8061069e575061069d826114b0565b5b9050919050565b6106ad61151a565b73ffffffffffffffffffffffffffffffffffffffff166106cb610da3565b73ffffffffffffffffffffffffffffffffffffffff1614610721576040517f08c379a000000000000000000000000000000000000000000000000000000000815260040161071890612bb9565b60405180910390fd5b80600960006101000a81548160ff02191690831515021790555050565b60606000805461074d90612f49565b80601f016020809104026020016040519081016040528092919081815260200182805461077990612f49565b80156107c65780601f1061079b576101008083540402835291602001916107c6565b820191906000526020600020905b8154815290600101906020018083116107a957829003601f168201915b5050505050905090565b60006107db82611522565b61081a576040517f08c379a000000000000000000000000000000000000000000000000000000000815260040161081190612b99565b60405180910390fd5b6004600083815260200190815260200160002060009054906101000a900473ffffffffffffffffffffffffffffffffffffffff169050919050565b600061086082610af0565b90508073ffffffffffffffffffffffffffffffffffffffff168373ffffffffffffffffffffffffffffffffffffffff1614156108d1576040517f08c379a00000000000000000000000000000000000000000000000000000000081526004016108c890612c39565b60405180910390fd5b8073ffffffffffffffffffffffffffffffffffffffff166108f061151a565b73ffffffffffffffffffffffffffffffffffffffff16148061091f575061091e8161091961151a565b61125d565b5b61095e576040517f08c379a000000000000000000000000000000000000000000000000000000000815260040161095590612ad9565b60405180910390fd5b610968838361158e565b505050565b60006109796008611647565b905090565b61098f61098961151a565b82611655565b6109ce576040517f08c379a00000000000000000000000000000000000000000000000000000000081526004016109c590612c59565b60405180910390fd5b6109d9838383611733565b505050565b6107d081565b60004790506109f1610da3565b73ffffffffffffffffffffffffffffffffffffffff166108fc829081150290604051600060405180830381858888f19350505050158015610a36573d6000803e3d6000fd5b5050565b610a55838383604051806020016040528060008152506111c5565b505050565b610a6261151a565b73ffffffffffffffffffffffffffffffffffffffff16610a80610da3565b73ffffffffffffffffffffffffffffffffffffffff1614610ad6576040517f08c379a0000000000000000000000000000000000000000000000000000000008152600401610acd90612bb9565b60405180910390fd5b80600a9080519060200190610aec929190612091565b5050565b6000806002600084815260200190815260200160002060009054906101000a900473ffffffffffffffffffffffffffffffffffffffff169050600073ffffffffffffffffffffffffffffffffffffffff168173ffffffffffffffffffffffffffffffffffffffff161415610b99576040517f08c379a0000000000000000000000000000000000000000000000000000000008152600401610b9090612b39565b60405180910390fd5b80915050919050565b60008073ffffffffffffffffffffffffffffffffffffffff168273ffffffffffffffffffffffffffffffffffffffff161415610c13576040517f08c379a0000000000000000000000000000000000000000000000000000000008152600401610c0a90612b19565b60405180910390fd5b600360008373ffffffffffffffffffffffffffffffffffffffff1673ffffffffffffffffffffffffffffffffffffffff168152602001908152602001600020549050919050565b610c6261151a565b73ffffffffffffffffffffffffffffffffffffffff16610c80610da3565b73ffffffffffffffffffffffffffffffffffffffff1614610cd6576040517f08c379a0000000000000000000000000000000000000000000000000000000008152600401610ccd90612bb9565b60405180910390fd5b600073ffffffffffffffffffffffffffffffffffffffff16600760009054906101000a900473ffffffffffffffffffffffffffffffffffffffff1673ffffffffffffffffffffffffffffffffffffffff167f8be0079c531659141344cd1fd0a4f28419497f9722a3daafe3b4186f6b6457e060405160405180910390a36000600760006101000a81548173ffffffffffffffffffffffffffffffffffffffff021916908373ffffffffffffffffffffffffffffffffffffffff160217905550565b671bc16d674ec8000081565b6000600760009054906101000a900473ffffffffffffffffffffffffffffffffffffffff16905090565b606060018054610ddc90612f49565b80601f0160208091040260200160405190810160405280929190818152602001828054610e0890612f49565b8015610e555780601f10610e2a57610100808354040283529160200191610e55565b820191906000526020600020905b815481529060010190602001808311610e3857829003601f168201915b5050505050905090565b60026006541415610ea5576040517f08c379a0000000000000000000000000000000000000000000000000000000008152600401610e9c90612c79565b60405180910390fd5b6002600681905550600960009054906101000a900460ff16610efc576040517f08c379a0000000000000000000000000000000000000000000000000000000008152600401610ef390612ab9565b60405180910390fd5b6107d0600182610f0a61096d565b610f149190612d7e565b610f1e9190612e5f565b10610f5e576040517f08c379a0000000000000000000000000000000000000000000000000000000008152600401610f5590612b59565b60405180910390fd5b6014811115610fa2576040517f08c379a0000000000000000000000000000000000000000000000000000000008152600401610f9990612bf9565b60405180910390fd5b80671bc16d674ec80000610fb69190612e05565b341015610ff8576040517f08c379a0000000000000000000000000000000000000000000000000000000008152600401610fef90612af9565b60405180910390fd5b60005b818110156110385761101b61100e61151a565b61101661096d565b61198f565b61102560086119ad565b808061103090612fac565b915050610ffb565b50600160068190555050565b61104c61151a565b73ffffffffffffffffffffffffffffffffffffffff168273ffffffffffffffffffffffffffffffffffffffff1614156110ba576040517f08c379a00000000000000000000000000000000000000000000000000000000081526004016110b190612a79565b60405180910390fd5b80600560006110c761151a565b73ffffffffffffffffffffffffffffffffffffffff1673ffffffffffffffffffffffffffffffffffffffff16815260200190815260200160002060008473ffffffffffffffffffffffffffffffffffffffff1673ffffffffffffffffffffffffffffffffffffffff16815260200190815260200160002060006101000a81548160ff0219169083151502179055508173ffffffffffffffffffffffffffffffffffffffff1661117461151a565b73ffffffffffffffffffffffffffffffffffffffff167f17307eab39ab6107e8899845ad3d59bd9653f200f220920489ca2b5937696c31836040516111b991906129bc565b60405180910390a35050565b6111d66111d061151a565b83611655565b611215576040517f08c379a000000000000000000000000000000000000000000000000000000000815260040161120c90612c59565b60405180910390fd5b611221848484846119c3565b50505050565b601481565b606061123782611a1f565b6040516020016112479190612933565b6040516020818303038152906040529050919050565b6000600560008473ffffffffffffffffffffffffffffffffffffffff1673ffffffffffffffffffffffffffffffffffffffff16815260200190815260200160002060008373ffffffffffffffffffffffffffffffffffffffff1673ffffffffffffffffffffffffffffffffffffffff16815260200190815260200160002060009054906101000a900460ff16905092915050565b600960009054906101000a900460ff1681565b61130c61151a565b73ffffffffffffffffffffffffffffffffffffffff1661132a610da3565b73ffffffffffffffffffffffffffffffffffffffff1614611380576040517f08c379a000000000000000000000000000000000000000000000000000000000815260040161137790612bb9565b60405180910390fd5b600073ffffffffffffffffffffffffffffffffffffffff168173ffffffffffffffffffffffffffffffffffffffff1614156113f0576040517f08c379a00000000000000000000000000000000000000000000000000000000081526004016113e790612a19565b60405180910390fd5b8073ffffffffffffffffffffffffffffffffffffffff16600760009054906101000a900473ffffffffffffffffffffffffffffffffffffffff1673ffffffffffffffffffffffffffffffffffffffff167f8be0079c531659141344cd1fd0a4f28419497f9722a3daafe3b4186f6b6457e060405160405180910390a380600760006101000a81548173ffffffffffffffffffffffffffffffffffffffff021916908373ffffffffffffffffffffffffffffffffffffffff16021790555050565b60007f01ffc9a7000000000000000000000000000000000000000000000000000000007bffffffffffffffffffffffffffffffffffffffffffffffffffffffff1916827bffffffffffffffffffffffffffffffffffffffffffffffffffffffff1916149050919050565b600033905090565b60008073ffffffffffffffffffffffffffffffffffffffff166002600084815260200190815260200160002060009054906101000a900473ffffffffffffffffffffffffffffffffffffffff1673ffffffffffffffffffffffffffffffffffffffff1614159050919050565b816004600083815260200190815260200160002060006101000a81548173ffffffffffffffffffffffffffffffffffffffff021916908373ffffffffffffffffffffffffffffffffffffffff160217905550808273ffffffffffffffffffffffffffffffffffffffff1661160183610af0565b73ffffffffffffffffffffffffffffffffffffffff167f8c5be1e5ebec7d5bd14f71427d1e84f3dd0314c0f7b2291e5b200ac8c7c3b92560405160405180910390a45050565b600081600001549050919050565b600061166082611522565b61169f576040517f08c379a000000000000000000000000000000000000000000000000000000000815260040161169690612a99565b60405180910390fd5b60006116aa83610af0565b90508073ffffffffffffffffffffffffffffffffffffffff168473ffffffffffffffffffffffffffffffffffffffff16148061171957508373ffffffffffffffffffffffffffffffffffffffff16611701846107d0565b73ffffffffffffffffffffffffffffffffffffffff16145b8061172a5750611729818561125d565b5b91505092915050565b8273ffffffffffffffffffffffffffffffffffffffff1661175382610af0565b73ffffffffffffffffffffffffffffffffffffffff16146117a9576040517f08c379a00000000000000000000000000000000000000000000000000000000081526004016117a090612bd9565b60405180910390fd5b600073ffffffffffffffffffffffffffffffffffffffff168273ffffffffffffffffffffffffffffffffffffffff161415611819576040517f08c379a000000000000000000000000000000000000000000000000000000000815260040161181090612a59565b60405180910390fd5b611824838383611ac6565b61182f60008261158e565b6001600360008573ffffffffffffffffffffffffffffffffffffffff1673ffffffffffffffffffffffffffffffffffffffff168152602001908152602001600020600082825461187f9190612e5f565b925050819055506001600360008473ffffffffffffffffffffffffffffffffffffffff1673ffffffffffffffffffffffffffffffffffffffff16815260200190815260200160002060008282546118d69190612d7e565b92505081905550816002600083815260200190815260200160002060006101000a81548173ffffffffffffffffffffffffffffffffffffffff021916908373ffffffffffffffffffffffffffffffffffffffff160217905550808273ffffffffffffffffffffffffffffffffffffffff168473ffffffffffffffffffffffffffffffffffffffff167fddf252ad1be2c89b69c2b068fc378daa952ba7f163c4a11628f55a4df523b3ef60405160405180910390a4505050565b6119a9828260405180602001604052806000815250611acb565b5050565b6001816000016000828254019250508190555050565b6119ce848484611733565b6119da84848484611b26565b611a19576040517f08c379a0000000000000000000000000000000000000000000000000000000008152600401611a10906129f9565b60405180910390fd5b50505050565b6060611a2a82611522565b611a69576040517f08c379a0000000000000000000000000000000000000000000000000000000008152600401611a6090612c19565b60405180910390fd5b6000611a73611cbd565b90506000815111611a935760405180602001604052806000815250611abe565b80611a9d84611d4f565b604051602001611aae92919061290f565b6040516020818303038152906040525b915050919050565b505050565b611ad58383611eb0565b611ae26000848484611b26565b611b21576040517f08c379a0000000000000000000000000000000000000000000000000000000008152600401611b18906129f9565b60405180910390fd5b505050565b6000611b478473ffffffffffffffffffffffffffffffffffffffff1661207e565b15611cb0578373ffffffffffffffffffffffffffffffffffffffff1663150b7a02611b7061151a565b8786866040518563ffffffff1660e01b8152600401611b929493929190612970565b602060405180830381600087803b158015611bac57600080fd5b505af1925050508015611bdd57506040513d601f19601f82011682018060405250810190611bda919061249a565b60015b611c60573d8060008114611c0d576040519150601f19603f3d011682016040523d82523d6000602084013e611c12565b606091505b50600081511415611c58576040517f08c379a0000000000000000000000000000000000000000000000000000000008152600401611c4f906129f9565b60405180910390fd5b805181602001fd5b63150b7a0260e01b7bffffffffffffffffffffffffffffffffffffffffffffffffffffffff1916817bffffffffffffffffffffffffffffffffffffffffffffffffffffffff191614915050611cb5565b600190505b949350505050565b6060600a8054611ccc90612f49565b80601f0160208091040260200160405190810160405280929190818152602001828054611cf890612f49565b8015611d455780601f10611d1a57610100808354040283529160200191611d45565b820191906000526020600020905b815481529060010190602001808311611d2857829003601f168201915b5050505050905090565b60606000821415611d97576040518060400160405280600181526020017f30000000000000000000000000000000000000000000000000000000000000008152509050611eab565b600082905060005b60008214611dc9578080611db290612fac565b915050600a82611dc29190612dd4565b9150611d9f565b60008167ffffffffffffffff811115611de557611de46130e2565b5b6040519080825280601f01601f191660200182016040528015611e175781602001600182028036833780820191505090505b5090505b60008514611ea457600182611e309190612e5f565b9150600a85611e3f9190612ff5565b6030611e4b9190612d7e565b60f81b818381518110611e6157611e606130b3565b5b60200101907effffffffffffffffffffffffffffffffffffffffffffffffffffffffffffff1916908160001a905350600a85611e9d9190612dd4565b9450611e1b565b8093505050505b919050565b600073ffffffffffffffffffffffffffffffffffffffff168273ffffffffffffffffffffffffffffffffffffffff161415611f20576040517f08c379a0000000000000000000000000000000000000000000000000000000008152600401611f1790612b79565b60405180910390fd5b611f2981611522565b15611f69576040517f08c379a0000000000000000000000000000000000000000000000000000000008152600401611f6090612a39565b60405180910390fd5b611f7560008383611ac6565b6001600360008473ffffffffffffffffffffffffffffffffffffffff1673ffffffffffffffffffffffffffffffffffffffff1681526020019081526020016000206000828254611fc59190612d7e565b92505081905550816002600083815260200190815260200160002060006101000a81548173ffffffffffffffffffffffffffffffffffffffff021916908373ffffffffffffffffffffffffffffffffffffffff160217905550808273ffffffffffffffffffffffffffffffffffffffff16600073ffffffffffffffffffffffffffffffffffffffff167fddf252ad1be2c89b69c2b068fc378daa952ba7f163c4a11628f55a4df523b3ef60405160405180910390a45050565b600080823b905060008111915050919050565b82805461209d90612f49565b90600052602060002090601f0160209004810192826120bf5760008555612106565b82601f106120d857805160ff1916838001178555612106565b82800160010185558215612106579182015b828111156121055782518255916020019190600101906120ea565b5b5090506121139190612117565b5090565b5b80821115612130576000816000905550600101612118565b5090565b600061214761214284612cd9565b612cb4565b90508281526020810184848401111561216357612162613116565b5b61216e848285612f07565b509392505050565b600061218961218484612d0a565b612cb4565b9050828152602081018484840111156121a5576121a4613116565b5b6121b0848285612f07565b509392505050565b6000813590506121c7816136aa565b92915050565b6000813590506121dc816136c1565b92915050565b6000813590506121f1816136d8565b92915050565b600081519050612206816136d8565b92915050565b600082601f83011261222157612220613111565b5b8135612231848260208601612134565b91505092915050565b600082601f83011261224f5761224e613111565b5b813561225f848260208601612176565b91505092915050565b600081359050612277816136ef565b92915050565b60006020828403121561229357612292613120565b5b60006122a1848285016121b8565b91505092915050565b600080604083850312156122c1576122c0613120565b5b60006122cf858286016121b8565b92505060206122e0858286016121b8565b9150509250929050565b60008060006060848603121561230357612302613120565b5b6000612311868287016121b8565b9350506020612322868287016121b8565b925050604061233386828701612268565b9150509250925092565b6000806000806080858703121561235757612356613120565b5b6000612365878288016121b8565b9450506020612376878288016121b8565b935050604061238787828801612268565b925050606085013567ffffffffffffffff8111156123a8576123a761311b565b5b6123b48782880161220c565b91505092959194509250565b600080604083850312156123d7576123d6613120565b5b60006123e5858286016121b8565b92505060206123f6858286016121cd565b9150509250929050565b6000806040838503121561241757612416613120565b5b6000612425858286016121b8565b925050602061243685828601612268565b9150509250929050565b60006020828403121561245657612455613120565b5b6000612464848285016121cd565b91505092915050565b60006020828403121561248357612482613120565b5b6000612491848285016121e2565b91505092915050565b6000602082840312156124b0576124af613120565b5b60006124be848285016121f7565b91505092915050565b6000602082840312156124dd576124dc613120565b5b600082013567ffffffffffffffff8111156124fb576124fa61311b565b5b6125078482850161223a565b91505092915050565b60006020828403121561252657612525613120565b5b600061253484828501612268565b91505092915050565b61254681612e93565b82525050565b61255581612ea5565b82525050565b600061256682612d3b565b6125708185612d51565b9350612580818560208601612f16565b61258981613125565b840191505092915050565b600061259f82612d46565b6125a98185612d62565b93506125b9818560208601612f16565b6125c281613125565b840191505092915050565b60006125d882612d46565b6125e28185612d73565b93506125f2818560208601612f16565b80840191505092915050565b600061260b603283612d62565b915061261682613136565b604082019050919050565b600061262e602683612d62565b915061263982613185565b604082019050919050565b6000612651601c83612d62565b915061265c826131d4565b602082019050919050565b6000612674602483612d62565b915061267f826131fd565b604082019050919050565b6000612697601983612d62565b91506126a28261324c565b602082019050919050565b60006126ba602c83612d62565b91506126c582613275565b604082019050919050565b60006126dd600f83612d62565b91506126e8826132c4565b602082019050919050565b6000612700603883612d62565b915061270b826132ed565b604082019050919050565b6000612723602483612d62565b915061272e8261333c565b604082019050919050565b6000612746602a83612d62565b91506127518261338b565b604082019050919050565b6000612769602983612d62565b9150612774826133da565b604082019050919050565b600061278c601283612d62565b915061279782613429565b602082019050919050565b60006127af602083612d62565b91506127ba82613452565b602082019050919050565b60006127d2602c83612d62565b91506127dd8261347b565b604082019050919050565b60006127f5600583612d73565b9150612800826134ca565b600582019050919050565b6000612818602083612d62565b9150612823826134f3565b602082019050919050565b600061283b602983612d62565b91506128468261351c565b604082019050919050565b600061285e601983612d62565b91506128698261356b565b602082019050919050565b6000612881602f83612d62565b915061288c82613594565b604082019050919050565b60006128a4602183612d62565b91506128af826135e3565b604082019050919050565b60006128c7603183612d62565b91506128d282613632565b604082019050919050565b60006128ea601f83612d62565b91506128f582613681565b602082019050919050565b61290981612efd565b82525050565b600061291b82856125cd565b915061292782846125cd565b91508190509392505050565b600061293f82846125cd565b915061294a826127e8565b915081905092915050565b600060208201905061296a600083018461253d565b92915050565b6000608082019050612985600083018761253d565b612992602083018661253d565b61299f6040830185612900565b81810360608301526129b1818461255b565b905095945050505050565b60006020820190506129d1600083018461254c565b92915050565b600060208201905081810360008301526129f18184612594565b905092915050565b60006020820190508181036000830152612a12816125fe565b9050919050565b60006020820190508181036000830152612a3281612621565b9050919050565b60006020820190508181036000830152612a5281612644565b9050919050565b60006020820190508181036000830152612a7281612667565b9050919050565b60006020820190508181036000830152612a928161268a565b9050919050565b60006020820190508181036000830152612ab2816126ad565b9050919050565b60006020820190508181036000830152612ad2816126d0565b9050919050565b60006020820190508181036000830152612af2816126f3565b9050919050565b60006020820190508181036000830152612b1281612716565b9050919050565b60006020820190508181036000830152612b3281612739565b9050919050565b60006020820190508181036000830152612b528161275c565b9050919050565b60006020820190508181036000830152612b728161277f565b9050919050565b60006020820190508181036000830152612b92816127a2565b9050919050565b60006020820190508181036000830152612bb2816127c5565b9050919050565b60006020820190508181036000830152612bd28161280b565b9050919050565b60006020820190508181036000830152612bf28161282e565b9050919050565b60006020820190508181036000830152612c1281612851565b9050919050565b60006020820190508181036000830152612c3281612874565b9050919050565b60006020820190508181036000830152612c5281612897565b9050919050565b60006020820190508181036000830152612c72816128ba565b9050919050565b60006020820190508181036000830152612c92816128dd565b9050919050565b6000602082019050612cae6000830184612900565b92915050565b6000612cbe612ccf565b9050612cca8282612f7b565b919050565b6000604051905090565b600067ffffffffffffffff821115612cf457612cf36130e2565b5b612cfd82613125565b9050602081019050919050565b600067ffffffffffffffff821115612d2557612d246130e2565b5b612d2e82613125565b9050602081019050919050565b600081519050919050565b600081519050919050565b600082825260208201905092915050565b600082825260208201905092915050565b600081905092915050565b6000612d8982612efd565b9150612d9483612efd565b9250827fffffffffffffffffffffffffffffffffffffffffffffffffffffffffffffffff03821115612dc957612dc8613026565b5b828201905092915050565b6000612ddf82612efd565b9150612dea83612efd565b925082612dfa57612df9613055565b5b828204905092915050565b6000612e1082612efd565b9150612e1b83612efd565b9250817fffffffffffffffffffffffffffffffffffffffffffffffffffffffffffffffff0483118215151615612e5457612e53613026565b5b828202905092915050565b6000612e6a82612efd565b9150612e7583612efd565b925082821015612e8857612e87613026565b5b828203905092915050565b6000612e9e82612edd565b9050919050565b60008115159050919050565b60007fffffffff0000000000000000000000000000000000000000000000000000000082169050919050565b600073ffffffffffffffffffffffffffffffffffffffff82169050919050565b6000819050919050565b82818337600083830152505050565b60005b83811015612f34578082015181840152602081019050612f19565b83811115612f43576000848401525b50505050565b60006002820490506001821680612f6157607f821691505b60208210811415612f7557612f74613084565b5b50919050565b612f8482613125565b810181811067ffffffffffffffff82111715612fa357612fa26130e2565b5b80604052505050565b6000612fb782612efd565b91507fffffffffffffffffffffffffffffffffffffffffffffffffffffffffffffffff821415612fea57612fe9613026565b5b600182019050919050565b600061300082612efd565b915061300b83612efd565b92508261301b5761301a613055565b5b828206905092915050565b7f4e487b7100000000000000000000000000000000000000000000000000000000600052601160045260246000fd5b7f4e487b7100000000000000000000000000000000000000000000000000000000600052601260045260246000fd5b7f4e487b7100000000000000000000000000000000000000000000000000000000600052602260045260246000fd5b7f4e487b7100000000000000000000000000000000000000000000000000000000600052603260045260246000fd5b7f4e487b7100000000000000000000000000000000000000000000000000000000600052604160045260246000fd5b600080fd5b600080fd5b600080fd5b600080fd5b6000601f19601f8301169050919050565b7f4552433732313a207472616e7366657220746f206e6f6e20455243373231526560008201527f63656976657220696d706c656d656e7465720000000000000000000000000000602082015250565b7f4f776e61626c653a206e6577206f776e657220697320746865207a65726f206160008201527f6464726573730000000000000000000000000000000000000000000000000000602082015250565b7f4552433732313a20746f6b656e20616c7265616479206d696e74656400000000600082015250565b7f4552433732313a207472616e7366657220746f20746865207a65726f2061646460008201527f7265737300000000000000000000000000000000000000000000000000000000602082015250565b7f4552433732313a20617070726f766520746f2063616c6c657200000000000000600082015250565b7f4552433732313a206f70657261746f7220717565727920666f72206e6f6e657860008201527f697374656e7420746f6b656e0000000000000000000000000000000000000000602082015250565b7f53616c65206e6f74206163746976650000000000000000000000000000000000600082015250565b7f4552433732313a20617070726f76652063616c6c6572206973206e6f74206f7760008201527f6e6572206e6f7220617070726f76656420666f7220616c6c0000000000000000602082015250565b7f496e73756666696369656e74207061796d656e742c203220455448207065722060008201527f6974656d00000000000000000000000000000000000000000000000000000000602082015250565b7f4552433732313a2062616c616e636520717565727920666f7220746865207a6560008201527f726f206164647265737300000000000000000000000000000000000000000000602082015250565b7f4552433732313a206f776e657220717565727920666f72206e6f6e657869737460008201527f656e7420746f6b656e0000000000000000000000000000000000000000000000602082015250565b7f45786365656473206d617820737570706c790000000000000000000000000000600082015250565b7f4552433732313a206d696e7420746f20746865207a65726f2061646472657373600082015250565b7f4552433732313a20617070726f76656420717565727920666f72206e6f6e657860008201527f697374656e7420746f6b656e0000000000000000000000000000000000000000602082015250565b7f2e6a736f6e000000000000000000000000000000000000000000000000000000600082015250565b7f4f776e61626c653a2063616c6c6572206973206e6f7420746865206f776e6572600082015250565b7f4552433732313a207472616e73666572206f6620746f6b656e2074686174206960008201527f73206e6f74206f776e0000000000000000000000000000000000000000000000602082015250565b7f4d696e74206174206d6f737420323020617420612074696d6500000000000000600082015250565b7f4552433732314d657461646174613a2055524920717565727920666f72206e6f60008201527f6e6578697374656e7420746f6b656e0000000000000000000000000000000000602082015250565b7f4552433732313a20617070726f76616c20746f2063757272656e74206f776e6560008201527f7200000000000000000000000000000000000000000000000000000000000000602082015250565b7f4552433732313a207472616e736665722063616c6c6572206973206e6f74206f60008201527f776e6572206e6f7220617070726f766564000000000000000000000000000000602082015250565b7f5265656e7472616e637947756172643a207265656e7472616e742063616c6c00600082015250565b6136b381612e93565b81146136be57600080fd5b50565b6136ca81612ea5565b81146136d557600080fd5b50565b6136e181612eb1565b81146136ec57600080fd5b50565b6136f881612efd565b811461370357600080fd5b5056fea26469706673582212208a8e4018307f4449278e7e4b412b6af528b2141722718f61b5f8695e5400f03764736f6c63430008070033",
  "linkReferences": {},
  "deployedLinkReferences": {}
}