{
  "_format": "hh-sol-artifact-1",
  "contractName": "HodoNFT",
  "sourceName": "contracts/HodoNFT.sol",
  "abi": [
    {
      "inputs": [],
      "stateMutability": "nonpayable",
      "type": "constructor"
    },
    {
      "anonymous": false,
      "inputs": [
        {
          "indexed": true,
          "internalType": "address",
          "name": "account",
          "type": "address"
        },
        {
          "indexed": true,
          "internalType": "address",
          "name": "operator",
          "type": "address"
        },
        {
          "indexed": false,
          "internalType": "bool",
          "name": "approved",
          "type": "bool"
        }
      ],
      "name": "ApprovalForAll",
      "type": "event"
    },
    {
      "anonymous": false,
      "inputs": [
        {
          "indexed": true,
          "internalType": "address",
          "name": "operator",
          "type": "address"
        },
        {
          "indexed": true,
          "internalType": "address",
          "name": "from",
          "type": "address"
        },
        {
          "indexed": true,
          "internalType": "address",
          "name": "to",
          "type": "address"
        },
        {
          "indexed": false,
          "internalType": "uint256[]",
          "name": "ids",
          "type": "uint256[]"
        },
        {
          "indexed": false,
          "internalType": "uint256[]",
          "name": "values",
          "type": "uint256[]"
        }
      ],
      "name": "TransferBatch",
      "type": "event"
    },
    {
      "anonymous": false,
      "inputs": [
        {
          "indexed": true,
          "internalType": "address",
          "name": "operator",
          "type": "address"
        },
        {
          "indexed": true,
          "internalType": "address",
          "name": "from",
          "type": "address"
        },
        {
          "indexed": true,
          "internalType": "address",
          "name": "to",
          "type": "address"
        },
        {
          "indexed": false,
          "internalType": "uint256",
          "name": "id",
          "type": "uint256"
        },
        {
          "indexed": false,
          "internalType": "uint256",
          "name": "value",
          "type": "uint256"
        }
      ],
      "name": "TransferSingle",
      "type": "event"
    },
    {
      "anonymous": false,
      "inputs": [
        {
          "indexed": false,
          "internalType": "string",
          "name": "value",
          "type": "string"
        },
        {
          "indexed": true,
          "internalType": "uint256",
          "name": "id",
          "type": "uint256"
        }
      ],
      "name": "URI",
      "type": "event"
    },
    {
      "inputs": [
        {
          "internalType": "address",
          "name": "account",
          "type": "address"
        },
        {
          "internalType": "uint256",
          "name": "id",
          "type": "uint256"
        }
      ],
      "name": "balanceOf",
      "outputs": [
        {
          "internalType": "uint256",
          "name": "",
          "type": "uint256"
        }
      ],
      "stateMutability": "view",
      "type": "function"
    },
    {
      "inputs": [
        {
          "internalType": "address[]",
          "name": "accounts",
          "type": "address[]"
        },
        {
          "internalType": "uint256[]",
          "name": "ids",
          "type": "uint256[]"
        }
      ],
      "name": "balanceOfBatch",
      "outputs": [
        {
          "internalType": "uint256[]",
          "name": "",
          "type": "uint256[]"
        }
      ],
      "stateMutability": "view",
      "type": "function"
    },
    {
      "inputs": [
        {
          "internalType": "address",
          "name": "account",
          "type": "address"
        },
        {
          "internalType": "address",
          "name": "operator",
          "type": "address"
        }
      ],
      "name": "isApprovedForAll",
      "outputs": [
        {
          "internalType": "bool",
          "name": "",
          "type": "bool"
        }
      ],
      "stateMutability": "view",
      "type": "function"
    },
    {
      "inputs": [
        {
          "internalType": "uint256",
          "name": "_idQuantity",
          "type": "uint256"
        },
        {
          "internalType": "uint256[]",
          "name": "_amount",
          "type": "uint256[]"
        },
        {
          "internalType": "bytes",
          "name": "_data",
          "type": "bytes"
        }
      ],
      "name": "mintBatchNFT",
      "outputs": [
        {
          "internalType": "uint256[]",
          "name": "",
          "type": "uint256[]"
        }
      ],
      "stateMutability": "nonpayable",
      "type": "function"
    },
    {
      "inputs": [
        {
          "internalType": "uint256",
          "name": "_amount",
          "type": "uint256"
        },
        {
          "internalType": "bytes",
          "name": "_data",
          "type": "bytes"
        }
      ],
      "name": "mintNFT",
      "outputs": [
        {
          "internalType": "uint256",
          "name": "",
          "type": "uint256"
        }
      ],
      "stateMutability": "nonpayable",
      "type": "function"
    },
    {
      "inputs": [
        {
          "internalType": "address",
          "name": "from",
          "type": "address"
        },
        {
          "internalType": "address",
          "name": "to",
          "type": "address"
        },
        {
          "internalType": "uint256[]",
          "name": "ids",
          "type": "uint256[]"
        },
        {
          "internalType": "uint256[]",
          "name": "amounts",
          "type": "uint256[]"
        },
        {
          "internalType": "bytes",
          "name": "data",
          "type": "bytes"
        }
      ],
      "name": "safeBatchTransferFrom",
      "outputs": [],
      "stateMutability": "nonpayable",
      "type": "function"
    },
    {
      "inputs": [
        {
          "internalType": "address",
          "name": "from",
          "type": "address"
        },
        {
          "internalType": "address",
          "name": "to",
          "type": "address"
        },
        {
          "internalType": "uint256",
          "name": "id",
          "type": "uint256"
        },
        {
          "internalType": "uint256",
          "name": "amount",
          "type": "uint256"
        },
        {
          "internalType": "bytes",
          "name": "data",
          "type": "bytes"
        }
      ],
      "name": "safeTransferFrom",
      "outputs": [],
      "stateMutability": "nonpayable",
      "type": "function"
    },
    {
      "inputs": [
        {
          "internalType": "address",
          "name": "operator",
          "type": "address"
        },
        {
          "internalType": "bool",
          "name": "approved",
          "type": "bool"
        }
      ],
      "name": "setApprovalForAll",
      "outputs": [],
      "stateMutability": "nonpayable",
      "type": "function"
    },
    {
      "inputs": [],
      "name": "supply",
      "outputs": [
        {
          "internalType": "uint256",
          "name": "",
          "type": "uint256"
        }
      ],
      "stateMutability": "view",
      "type": "function"
    },
    {
      "inputs": [
        {
          "internalType": "bytes4",
          "name": "interfaceId",
          "type": "bytes4"
        }
      ],
      "name": "supportsInterface",
      "outputs": [
        {
          "internalType": "bool",
          "name": "",
          "type": "bool"
        }
      ],
      "stateMutability": "view",
      "type": "function"
    },
    {
      "inputs": [
        {
          "internalType": "uint256",
          "name": "",
          "type": "uint256"
        }
      ],
      "name": "uri",
      "outputs": [
        {
          "internalType": "string",
          "name": "",
          "type": "string"
        }
      ],
      "stateMutability": "view",
      "type": "function"
    }
  ],
  "bytecode": "0x60806040523480156200001157600080fd5b50604051806060016040528060278152602001620030b2602791396200003d816200005b60201b60201c565b506200005560036200007760201b620011f01760201c565b620001a2565b8060029080519060200190620000739291906200008d565b5050565b6001816000016000828254019250508190555050565b8280546200009b906200013d565b90600052602060002090601f016020900481019282620000bf57600085556200010b565b82601f10620000da57805160ff19168380011785556200010b565b828001600101855582156200010b579182015b828111156200010a578251825591602001919060010190620000ed565b5b5090506200011a91906200011e565b5090565b5b80821115620001395760008160009055506001016200011f565b5090565b600060028204905060018216806200015657607f821691505b602082108114156200016d576200016c62000173565b5b50919050565b7f4e487b7100000000000000000000000000000000000000000000000000000000600052602260045260246000fd5b612f0080620001b26000396000f3fe608060405234801561001057600080fd5b50600436106100a85760003560e01c80634e1273f4116100715780634e1273f414610177578063664c2b15146101a75780639224a33f146101d7578063a22cb46514610207578063e985e9c514610223578063f242432a14610253576100a8565b8062fdd58e146100ad57806301ffc9a7146100dd578063047fc9aa1461010d5780630e89341c1461012b5780632eb2c2d61461015b575b600080fd5b6100c760048036038101906100c29190611eca565b61026f565b6040516100d491906129e4565b60405180910390f35b6100f760048036038101906100f29190611f72565b610338565b6040516101049190612807565b60405180910390f35b61011561041a565b60405161012291906129e4565b60405180910390f35b61014560048036038101906101409190611fc4565b61042b565b6040516101529190612822565b60405180910390f35b61017560048036038101906101709190611d40565b6104bf565b005b610191600480360381019061018c9190611f06565b6108b5565b60405161019e91906127ae565b60405180910390f35b6101c160048036038101906101bc9190611fed565b610a66565b6040516101ce91906127ae565b60405180910390f35b6101f160048036038101906101ec919061206c565b610c24565b6040516101fe91906129e4565b60405180910390f35b610221600480360381019061021c9190611e8e565b610cc3565b005b61023d60048036038101906102389190611d04565b610e44565b60405161024a9190612807565b60405180910390f35b61026d60048036038101906102689190611dff565b610ed8565b005b60008073ffffffffffffffffffffffffffffffffffffffff168373ffffffffffffffffffffffffffffffffffffffff1614156102e0576040517f08c379a00000000000000000000000000000000000000000000000000000000081526004016102d790612884565b60405180910390fd5b60008083815260200190815260200160002060008473ffffffffffffffffffffffffffffffffffffffff1673ffffffffffffffffffffffffffffffffffffffff16815260200190815260200160002054905092915050565b60007fd9b67a26000000000000000000000000000000000000000000000000000000007bffffffffffffffffffffffffffffffffffffffffffffffffffffffff1916827bffffffffffffffffffffffffffffffffffffffffffffffffffffffff1916148061040357507f0e89341c000000000000000000000000000000000000000000000000000000007bffffffffffffffffffffffffffffffffffffffffffffffffffffffff1916827bffffffffffffffffffffffffffffffffffffffffffffffffffffffff1916145b80610413575061041282611206565b5b9050919050565b60006104266003611270565b905090565b60606002805461043a90612c92565b80601f016020809104026020016040519081016040528092919081815260200182805461046690612c92565b80156104b35780601f10610488576101008083540402835291602001916104b3565b820191906000526020600020905b81548152906001019060200180831161049657829003601f168201915b50505050509050919050565b8151835114610503576040517f08c379a00000000000000000000000000000000000000000000000000000000081526004016104fa906129a4565b60405180910390fd5b600073ffffffffffffffffffffffffffffffffffffffff168473ffffffffffffffffffffffffffffffffffffffff161415610573576040517f08c379a000000000000000000000000000000000000000000000000000000000815260040161056a906128e4565b60405180910390fd5b61057b61127e565b73ffffffffffffffffffffffffffffffffffffffff168573ffffffffffffffffffffffffffffffffffffffff1614806105c157506105c0856105bb61127e565b610e44565b5b610600576040517f08c379a00000000000000000000000000000000000000000000000000000000081526004016105f790612904565b60405180910390fd5b600061060a61127e565b905061061a818787878787611286565b60005b8451811015610820576000858281518110610661577f4e487b7100000000000000000000000000000000000000000000000000000000600052603260045260246000fd5b6020026020010151905060008583815181106106a6577f4e487b7100000000000000000000000000000000000000000000000000000000600052603260045260246000fd5b60200260200101519050600080600084815260200190815260200160002060008b73ffffffffffffffffffffffffffffffffffffffff1673ffffffffffffffffffffffffffffffffffffffff16815260200190815260200160002054905081811015610747576040517f08c379a000000000000000000000000000000000000000000000000000000000815260040161073e90612924565b60405180910390fd5b81816107539190612ba8565b60008085815260200190815260200160002060008c73ffffffffffffffffffffffffffffffffffffffff1673ffffffffffffffffffffffffffffffffffffffff168152602001908152602001600020819055508160008085815260200190815260200160002060008b73ffffffffffffffffffffffffffffffffffffffff1673ffffffffffffffffffffffffffffffffffffffff16815260200190815260200160002060008282546108059190612b52565b925050819055505050508061081990612cc4565b905061061d565b508473ffffffffffffffffffffffffffffffffffffffff168673ffffffffffffffffffffffffffffffffffffffff168273ffffffffffffffffffffffffffffffffffffffff167f4a39dc06d4c0dbc64b70af90fd698a233a518aa5d07e595d983b8c0526c8f7fb87876040516108979291906127d0565b60405180910390a46108ad81878787878761128e565b505050505050565b606081518351146108fb576040517f08c379a00000000000000000000000000000000000000000000000000000000081526004016108f290612984565b60405180910390fd5b6000835167ffffffffffffffff81111561093e577f4e487b7100000000000000000000000000000000000000000000000000000000600052604160045260246000fd5b60405190808252806020026020018201604052801561096c5781602001602082028036833780820191505090505b50905060005b8451811015610a5b57610a058582815181106109b7577f4e487b7100000000000000000000000000000000000000000000000000000000600052603260045260246000fd5b60200260200101518583815181106109f8577f4e487b7100000000000000000000000000000000000000000000000000000000600052603260045260246000fd5b602002602001015161026f565b828281518110610a3e577f4e487b7100000000000000000000000000000000000000000000000000000000600052603260045260246000fd5b60200260200101818152505080610a5490612cc4565b9050610972565b508091505092915050565b6060600073ffffffffffffffffffffffffffffffffffffffff163373ffffffffffffffffffffffffffffffffffffffff161415610ad8576040517f08c379a0000000000000000000000000000000000000000000000000000000008152600401610acf906128a4565b60405180910390fd5b82518414610b1b576040517f08c379a0000000000000000000000000000000000000000000000000000000008152600401610b1290612944565b60405180910390fd5b60008467ffffffffffffffff811115610b5d577f4e487b7100000000000000000000000000000000000000000000000000000000600052604160045260246000fd5b604051908082528060200260200182016040528015610b8b5781602001602082028036833780820191505090505b50905060005b8451811015610c0c576000610ba66003611270565b9050610bb260036111f0565b80838381518110610bec577f4e487b7100000000000000000000000000000000000000000000000000000000600052603260045260246000fd5b602002602001018181525050508080610c0490612cc4565b915050610b91565b50610c193382868661145e565b809150509392505050565b60008073ffffffffffffffffffffffffffffffffffffffff163373ffffffffffffffffffffffffffffffffffffffff161415610c95576040517f08c379a0000000000000000000000000000000000000000000000000000000008152600401610c8c906128a4565b60405180910390fd5b6000610ca16003611270565b9050610caf338286866116c8565b610cb960036111f0565b8091505092915050565b8173ffffffffffffffffffffffffffffffffffffffff16610ce261127e565b73ffffffffffffffffffffffffffffffffffffffff161415610d39576040517f08c379a0000000000000000000000000000000000000000000000000000000008152600401610d3090612964565b60405180910390fd5b8060016000610d4661127e565b73ffffffffffffffffffffffffffffffffffffffff1673ffffffffffffffffffffffffffffffffffffffff16815260200190815260200160002060008473ffffffffffffffffffffffffffffffffffffffff1673ffffffffffffffffffffffffffffffffffffffff16815260200190815260200160002060006101000a81548160ff0219169083151502179055508173ffffffffffffffffffffffffffffffffffffffff16610df361127e565b73ffffffffffffffffffffffffffffffffffffffff167f17307eab39ab6107e8899845ad3d59bd9653f200f220920489ca2b5937696c3183604051610e389190612807565b60405180910390a35050565b6000600160008473ffffffffffffffffffffffffffffffffffffffff1673ffffffffffffffffffffffffffffffffffffffff16815260200190815260200160002060008373ffffffffffffffffffffffffffffffffffffffff1673ffffffffffffffffffffffffffffffffffffffff16815260200190815260200160002060009054906101000a900460ff16905092915050565b600073ffffffffffffffffffffffffffffffffffffffff168473ffffffffffffffffffffffffffffffffffffffff161415610f48576040517f08c379a0000000000000000000000000000000000000000000000000000000008152600401610f3f906128e4565b60405180910390fd5b610f5061127e565b73ffffffffffffffffffffffffffffffffffffffff168573ffffffffffffffffffffffffffffffffffffffff161480610f965750610f9585610f9061127e565b610e44565b5b610fd5576040517f08c379a0000000000000000000000000000000000000000000000000000000008152600401610fcc906128c4565b60405180910390fd5b6000610fdf61127e565b9050610fff818787610ff08861185e565b610ff98861185e565b87611286565b600080600086815260200190815260200160002060008873ffffffffffffffffffffffffffffffffffffffff1673ffffffffffffffffffffffffffffffffffffffff16815260200190815260200160002054905083811015611096576040517f08c379a000000000000000000000000000000000000000000000000000000000815260040161108d90612924565b60405180910390fd5b83816110a29190612ba8565b60008087815260200190815260200160002060008973ffffffffffffffffffffffffffffffffffffffff1673ffffffffffffffffffffffffffffffffffffffff168152602001908152602001600020819055508360008087815260200190815260200160002060008873ffffffffffffffffffffffffffffffffffffffff1673ffffffffffffffffffffffffffffffffffffffff16815260200190815260200160002060008282546111549190612b52565b925050819055508573ffffffffffffffffffffffffffffffffffffffff168773ffffffffffffffffffffffffffffffffffffffff168373ffffffffffffffffffffffffffffffffffffffff167fc3d58168c5ae7397731d063d5bbf3d657854427343f4c083240f7aacaa2d0f6288886040516111d19291906129ff565b60405180910390a46111e7828888888888611924565b50505050505050565b6001816000016000828254019250508190555050565b60007f01ffc9a7000000000000000000000000000000000000000000000000000000007bffffffffffffffffffffffffffffffffffffffffffffffffffffffff1916827bffffffffffffffffffffffffffffffffffffffffffffffffffffffff1916149050919050565b600081600001549050919050565b600033905090565b505050505050565b6112ad8473ffffffffffffffffffffffffffffffffffffffff16611af4565b15611456578373ffffffffffffffffffffffffffffffffffffffff1663bc197c8187878686866040518663ffffffff1660e01b81526004016112f39594939291906126ec565b602060405180830381600087803b15801561130d57600080fd5b505af192505050801561133e57506040513d601f19601f8201168201806040525081019061133b9190611f9b565b60015b6113cd5761134a612db8565b806113555750611392565b806040517f08c379a00000000000000000000000000000000000000000000000000000000081526004016113899190612822565b60405180910390fd5b6040517f08c379a00000000000000000000000000000000000000000000000000000000081526004016113c490612844565b60405180910390fd5b63bc197c8160e01b7bffffffffffffffffffffffffffffffffffffffffffffffffffffffff1916817bffffffffffffffffffffffffffffffffffffffffffffffffffffffff191614611454576040517f08c379a000000000000000000000000000000000000000000000000000000000815260040161144b90612864565b60405180910390fd5b505b505050505050565b600073ffffffffffffffffffffffffffffffffffffffff168473ffffffffffffffffffffffffffffffffffffffff1614156114ce576040517f08c379a00000000000000000000000000000000000000000000000000000000081526004016114c5906129c4565b60405180910390fd5b8151835114611512576040517f08c379a0000000000000000000000000000000000000000000000000000000008152600401611509906129a4565b60405180910390fd5b600061151c61127e565b905061152d81600087878787611286565b60005b845181101561163257838181518110611572577f4e487b7100000000000000000000000000000000000000000000000000000000600052603260045260246000fd5b60200260200101516000808784815181106115b6577f4e487b7100000000000000000000000000000000000000000000000000000000600052603260045260246000fd5b6020026020010151815260200190815260200160002060008873ffffffffffffffffffffffffffffffffffffffff1673ffffffffffffffffffffffffffffffffffffffff16815260200190815260200160002060008282546116189190612b52565b92505081905550808061162a90612cc4565b915050611530565b508473ffffffffffffffffffffffffffffffffffffffff16600073ffffffffffffffffffffffffffffffffffffffff168273ffffffffffffffffffffffffffffffffffffffff167f4a39dc06d4c0dbc64b70af90fd698a233a518aa5d07e595d983b8c0526c8f7fb87876040516116aa9291906127d0565b60405180910390a46116c18160008787878761128e565b5050505050565b600073ffffffffffffffffffffffffffffffffffffffff168473ffffffffffffffffffffffffffffffffffffffff161415611738576040517f08c379a000000000000000000000000000000000000000000000000000000000815260040161172f906129c4565b60405180910390fd5b600061174261127e565b9050611763816000876117548861185e565b61175d8861185e565b87611286565b8260008086815260200190815260200160002060008773ffffffffffffffffffffffffffffffffffffffff1673ffffffffffffffffffffffffffffffffffffffff16815260200190815260200160002060008282546117c29190612b52565b925050819055508473ffffffffffffffffffffffffffffffffffffffff16600073ffffffffffffffffffffffffffffffffffffffff168273ffffffffffffffffffffffffffffffffffffffff167fc3d58168c5ae7397731d063d5bbf3d657854427343f4c083240f7aacaa2d0f6287876040516118409291906129ff565b60405180910390a461185781600087878787611924565b5050505050565b60606000600167ffffffffffffffff8111156118a3577f4e487b7100000000000000000000000000000000000000000000000000000000600052604160045260246000fd5b6040519080825280602002602001820160405280156118d15781602001602082028036833780820191505090505b509050828160008151811061190f577f4e487b7100000000000000000000000000000000000000000000000000000000600052603260045260246000fd5b60200260200101818152505080915050919050565b6119438473ffffffffffffffffffffffffffffffffffffffff16611af4565b15611aec578373ffffffffffffffffffffffffffffffffffffffff1663f23a6e6187878686866040518663ffffffff1660e01b8152600401611989959493929190612754565b602060405180830381600087803b1580156119a357600080fd5b505af19250505080156119d457506040513d601f19601f820116820180604052508101906119d19190611f9b565b60015b611a63576119e0612db8565b806119eb5750611a28565b806040517f08c379a0000000000000000000000000000000000000000000000000000000008152600401611a1f9190612822565b60405180910390fd5b6040517f08c379a0000000000000000000000000000000000000000000000000000000008152600401611a5a90612844565b60405180910390fd5b63f23a6e6160e01b7bffffffffffffffffffffffffffffffffffffffffffffffffffffffff1916817bffffffffffffffffffffffffffffffffffffffffffffffffffffffff191614611aea576040517f08c379a0000000000000000000000000000000000000000000000000000000008152600401611ae190612864565b60405180910390fd5b505b505050505050565b600080823b905060008111915050919050565b6000611b1a611b1584612a59565b612a28565b90508083825260208201905082856020860282011115611b3957600080fd5b60005b85811015611b695781611b4f8882611c1d565b845260208401935060208301925050600181019050611b3c565b5050509392505050565b6000611b86611b8184612a85565b612a28565b90508083825260208201905082856020860282011115611ba557600080fd5b60005b85811015611bd55781611bbb8882611cef565b845260208401935060208301925050600181019050611ba8565b5050509392505050565b6000611bf2611bed84612ab1565b612a28565b905082815260208101848484011115611c0a57600080fd5b611c15848285612c50565b509392505050565b600081359050611c2c81612e6e565b92915050565b600082601f830112611c4357600080fd5b8135611c53848260208601611b07565b91505092915050565b600082601f830112611c6d57600080fd5b8135611c7d848260208601611b73565b91505092915050565b600081359050611c9581612e85565b92915050565b600081359050611caa81612e9c565b92915050565b600081519050611cbf81612e9c565b92915050565b600082601f830112611cd657600080fd5b8135611ce6848260208601611bdf565b91505092915050565b600081359050611cfe81612eb3565b92915050565b60008060408385031215611d1757600080fd5b6000611d2585828601611c1d565b9250506020611d3685828601611c1d565b9150509250929050565b600080600080600060a08688031215611d5857600080fd5b6000611d6688828901611c1d565b9550506020611d7788828901611c1d565b945050604086013567ffffffffffffffff811115611d9457600080fd5b611da088828901611c5c565b935050606086013567ffffffffffffffff811115611dbd57600080fd5b611dc988828901611c5c565b925050608086013567ffffffffffffffff811115611de657600080fd5b611df288828901611cc5565b9150509295509295909350565b600080600080600060a08688031215611e1757600080fd5b6000611e2588828901611c1d565b9550506020611e3688828901611c1d565b9450506040611e4788828901611cef565b9350506060611e5888828901611cef565b925050608086013567ffffffffffffffff811115611e7557600080fd5b611e8188828901611cc5565b9150509295509295909350565b60008060408385031215611ea157600080fd5b6000611eaf85828601611c1d565b9250506020611ec085828601611c86565b9150509250929050565b60008060408385031215611edd57600080fd5b6000611eeb85828601611c1d565b9250506020611efc85828601611cef565b9150509250929050565b60008060408385031215611f1957600080fd5b600083013567ffffffffffffffff811115611f3357600080fd5b611f3f85828601611c32565b925050602083013567ffffffffffffffff811115611f5c57600080fd5b611f6885828601611c5c565b9150509250929050565b600060208284031215611f8457600080fd5b6000611f9284828501611c9b565b91505092915050565b600060208284031215611fad57600080fd5b6000611fbb84828501611cb0565b91505092915050565b600060208284031215611fd657600080fd5b6000611fe484828501611cef565b91505092915050565b60008060006060848603121561200257600080fd5b600061201086828701611cef565b935050602084013567ffffffffffffffff81111561202d57600080fd5b61203986828701611c5c565b925050604084013567ffffffffffffffff81111561205657600080fd5b61206286828701611cc5565b9150509250925092565b6000806040838503121561207f57600080fd5b600061208d85828601611cef565b925050602083013567ffffffffffffffff8111156120aa57600080fd5b6120b685828601611cc5565b9150509250929050565b60006120cc83836126ce565b60208301905092915050565b6120e181612bdc565b82525050565b60006120f282612af1565b6120fc8185612b1f565b935061210783612ae1565b8060005b8381101561213857815161211f88826120c0565b975061212a83612b12565b92505060018101905061210b565b5085935050505092915050565b61214e81612bee565b82525050565b600061215f82612afc565b6121698185612b30565b9350612179818560208601612c5f565b61218281612d9a565b840191505092915050565b600061219882612b07565b6121a28185612b41565b93506121b2818560208601612c5f565b6121bb81612d9a565b840191505092915050565b60006121d3603483612b41565b91507f455243313135353a207472616e7366657220746f206e6f6e204552433131353560008301527f526563656976657220696d706c656d656e7465720000000000000000000000006020830152604082019050919050565b6000612239602883612b41565b91507f455243313135353a204552433131353552656365697665722072656a6563746560008301527f6420746f6b656e730000000000000000000000000000000000000000000000006020830152604082019050919050565b600061229f602b83612b41565b91507f455243313135353a2062616c616e636520717565727920666f7220746865207a60008301527f65726f20616464726573730000000000000000000000000000000000000000006020830152604082019050919050565b6000612305601d83612b41565b91507f63616c6c657220616464726573732063616e6e6f74206265207a65726f0000006000830152602082019050919050565b6000612345602983612b41565b91507f455243313135353a2063616c6c6572206973206e6f74206f776e6572206e6f7260008301527f20617070726f76656400000000000000000000000000000000000000000000006020830152604082019050919050565b60006123ab602583612b41565b91507f455243313135353a207472616e7366657220746f20746865207a65726f20616460008301527f64726573730000000000000000000000000000000000000000000000000000006020830152604082019050919050565b6000612411603283612b41565b91507f455243313135353a207472616e736665722063616c6c6572206973206e6f742060008301527f6f776e6572206e6f7220617070726f76656400000000000000000000000000006020830152604082019050919050565b6000612477602a83612b41565b91507f455243313135353a20696e73756666696369656e742062616c616e636520666f60008301527f72207472616e73666572000000000000000000000000000000000000000000006020830152604082019050919050565b60006124dd602c83612b41565b91507f69645175616e74697479206d75737420626520657175616c20746f205f616d6f60008301527f756e74207175616e7469747900000000000000000000000000000000000000006020830152604082019050919050565b6000612543602983612b41565b91507f455243313135353a2073657474696e6720617070726f76616c2073746174757360008301527f20666f722073656c6600000000000000000000000000000000000000000000006020830152604082019050919050565b60006125a9602983612b41565b91507f455243313135353a206163636f756e747320616e6420696473206c656e67746860008301527f206d69736d6174636800000000000000000000000000000000000000000000006020830152604082019050919050565b600061260f602883612b41565b91507f455243313135353a2069647320616e6420616d6f756e7473206c656e6774682060008301527f6d69736d617463680000000000000000000000000000000000000000000000006020830152604082019050919050565b6000612675602183612b41565b91507f455243313135353a206d696e7420746f20746865207a65726f2061646472657360008301527f73000000000000000000000000000000000000000000000000000000000000006020830152604082019050919050565b6126d781612c46565b82525050565b6126e681612c46565b82525050565b600060a08201905061270160008301886120d8565b61270e60208301876120d8565b818103604083015261272081866120e7565b9050818103606083015261273481856120e7565b905081810360808301526127488184612154565b90509695505050505050565b600060a08201905061276960008301886120d8565b61277660208301876120d8565b61278360408301866126dd565b61279060608301856126dd565b81810360808301526127a28184612154565b90509695505050505050565b600060208201905081810360008301526127c881846120e7565b905092915050565b600060408201905081810360008301526127ea81856120e7565b905081810360208301526127fe81846120e7565b90509392505050565b600060208201905061281c6000830184612145565b92915050565b6000602082019050818103600083015261283c818461218d565b905092915050565b6000602082019050818103600083015261285d816121c6565b9050919050565b6000602082019050818103600083015261287d8161222c565b9050919050565b6000602082019050818103600083015261289d81612292565b9050919050565b600060208201905081810360008301526128bd816122f8565b9050919050565b600060208201905081810360008301526128dd81612338565b9050919050565b600060208201905081810360008301526128fd8161239e565b9050919050565b6000602082019050818103600083015261291d81612404565b9050919050565b6000602082019050818103600083015261293d8161246a565b9050919050565b6000602082019050818103600083015261295d816124d0565b9050919050565b6000602082019050818103600083015261297d81612536565b9050919050565b6000602082019050818103600083015261299d8161259c565b9050919050565b600060208201905081810360008301526129bd81612602565b9050919050565b600060208201905081810360008301526129dd81612668565b9050919050565b60006020820190506129f960008301846126dd565b92915050565b6000604082019050612a1460008301856126dd565b612a2160208301846126dd565b9392505050565b6000604051905081810181811067ffffffffffffffff82111715612a4f57612a4e612d6b565b5b8060405250919050565b600067ffffffffffffffff821115612a7457612a73612d6b565b5b602082029050602081019050919050565b600067ffffffffffffffff821115612aa057612a9f612d6b565b5b602082029050602081019050919050565b600067ffffffffffffffff821115612acc57612acb612d6b565b5b601f19601f8301169050602081019050919050565b6000819050602082019050919050565b600081519050919050565b600081519050919050565b600081519050919050565b6000602082019050919050565b600082825260208201905092915050565b600082825260208201905092915050565b600082825260208201905092915050565b6000612b5d82612c46565b9150612b6883612c46565b9250827fffffffffffffffffffffffffffffffffffffffffffffffffffffffffffffffff03821115612b9d57612b9c612d0d565b5b828201905092915050565b6000612bb382612c46565b9150612bbe83612c46565b925082821015612bd157612bd0612d0d565b5b828203905092915050565b6000612be782612c26565b9050919050565b60008115159050919050565b60007fffffffff0000000000000000000000000000000000000000000000000000000082169050919050565b600073ffffffffffffffffffffffffffffffffffffffff82169050919050565b6000819050919050565b82818337600083830152505050565b60005b83811015612c7d578082015181840152602081019050612c62565b83811115612c8c576000848401525b50505050565b60006002820490506001821680612caa57607f821691505b60208210811415612cbe57612cbd612d3c565b5b50919050565b6000612ccf82612c46565b91507fffffffffffffffffffffffffffffffffffffffffffffffffffffffffffffffff821415612d0257612d01612d0d565b5b600182019050919050565b7f4e487b7100000000000000000000000000000000000000000000000000000000600052601160045260246000fd5b7f4e487b7100000000000000000000000000000000000000000000000000000000600052602260045260246000fd5b7f4e487b7100000000000000000000000000000000000000000000000000000000600052604160045260246000fd5b6000601f19601f8301169050919050565b60008160e01c9050919050565b600060443d1015612dc857612e6b565b60046000803e612dd9600051612dab565b6308c379a08114612dea5750612e6b565b60405160043d036004823e80513d602482011167ffffffffffffffff82111715612e1657505050612e6b565b808201805167ffffffffffffffff811115612e35575050505050612e6b565b8060208301013d8501811115612e5057505050505050612e6b565b612e5982612d9a565b60208401016040528296505050505050505b90565b612e7781612bdc565b8114612e8257600080fd5b50565b612e8e81612bee565b8114612e9957600080fd5b50565b612ea581612bfa565b8114612eb057600080fd5b50565b612ebc81612c46565b8114612ec757600080fd5b5056fea2646970667358221220df7effa640d90c3db735b581c66c89dac6e1cda550a1a06d0ae536431c4e55e164736f6c6343000800003368747470733a2f2f686f646f2e6e6574776f726b2f6170692f6974656d2f7b69647d2e6a736f6e",
  "linkReferences": {},
  "deployedLinkReferences": {}
}